{
  "contractName": "PaperHouse",
  "abi": [
    {
      "inputs": [],
      "stateMutability": "nonpayable",
      "type": "constructor"
    },
    {
      "anonymous": false,
      "inputs": [
        {
          "indexed": true,
          "internalType": "address",
          "name": "owner",
          "type": "address"
        },
        {
          "indexed": true,
          "internalType": "address",
          "name": "approved",
          "type": "address"
        },
        {
          "indexed": true,
          "internalType": "uint256",
          "name": "tokenId",
          "type": "uint256"
        }
      ],
      "name": "Approval",
      "type": "event"
    },
    {
      "anonymous": false,
      "inputs": [
        {
          "indexed": true,
          "internalType": "address",
          "name": "owner",
          "type": "address"
        },
        {
          "indexed": true,
          "internalType": "address",
          "name": "operator",
          "type": "address"
        },
        {
          "indexed": false,
          "internalType": "bool",
          "name": "approved",
          "type": "bool"
        }
      ],
      "name": "ApprovalForAll",
      "type": "event"
    },
    {
      "anonymous": false,
      "inputs": [
        {
          "indexed": false,
          "internalType": "address",
          "name": "from",
          "type": "address"
        },
        {
          "indexed": false,
          "internalType": "address",
          "name": "to",
          "type": "address"
        },
        {
          "indexed": false,
          "internalType": "uint256",
          "name": "amount",
          "type": "uint256"
        },
        {
          "indexed": false,
          "internalType": "uint256",
          "name": "paperId",
          "type": "uint256"
        },
        {
          "indexed": false,
          "internalType": "uint256",
          "name": "totalAmountFunded",
          "type": "uint256"
        }
      ],
      "name": "Funding",
      "type": "event"
    },
    {
      "anonymous": false,
      "inputs": [
        {
          "indexed": false,
          "internalType": "uint256",
          "name": "paperId",
          "type": "uint256"
        },
        {
          "indexed": false,
          "internalType": "string",
          "name": "tokenUri",
          "type": "string"
        },
        {
          "indexed": false,
          "internalType": "string",
          "name": "author",
          "type": "string"
        },
        {
          "indexed": false,
          "internalType": "address",
          "name": "owner",
          "type": "address"
        },
        {
          "indexed": false,
          "internalType": "bool",
          "name": "allowFunding",
          "type": "bool"
        },
        {
          "indexed": false,
          "internalType": "uint256",
          "name": "fundAmount",
          "type": "uint256"
        }
      ],
      "name": "Published",
      "type": "event"
    },
    {
      "anonymous": false,
      "inputs": [
        {
          "indexed": true,
          "internalType": "address",
          "name": "from",
          "type": "address"
        },
        {
          "indexed": true,
          "internalType": "address",
          "name": "to",
          "type": "address"
        },
        {
          "indexed": true,
          "internalType": "uint256",
          "name": "tokenId",
          "type": "uint256"
        }
      ],
      "name": "Transfer",
      "type": "event"
    },
    {
      "anonymous": false,
      "inputs": [
        {
          "indexed": false,
          "internalType": "uint256",
          "name": "paperId",
          "type": "uint256"
        },
        {
          "indexed": false,
          "internalType": "bool",
          "name": "allowFunding",
          "type": "bool"
        },
        {
          "indexed": false,
          "internalType": "uint256",
          "name": "amount",
          "type": "uint256"
        }
      ],
      "name": "UpdatePaper",
      "type": "event"
    },
    {
      "inputs": [
        {
          "internalType": "address",
          "name": "to",
          "type": "address"
        },
        {
          "internalType": "uint256",
          "name": "tokenId",
          "type": "uint256"
        }
      ],
      "name": "approve",
      "outputs": [],
      "stateMutability": "nonpayable",
      "type": "function"
    },
    {
      "inputs": [
        {
          "internalType": "address",
          "name": "owner",
          "type": "address"
        }
      ],
      "name": "balanceOf",
      "outputs": [
        {
          "internalType": "uint256",
          "name": "",
          "type": "uint256"
        }
      ],
      "stateMutability": "view",
      "type": "function",
      "constant": true
    },
    {
      "inputs": [
        {
          "internalType": "uint256",
          "name": "tokenId",
          "type": "uint256"
        }
      ],
      "name": "getApproved",
      "outputs": [
        {
          "internalType": "address",
          "name": "",
          "type": "address"
        }
      ],
      "stateMutability": "view",
      "type": "function",
      "constant": true
    },
    {
      "inputs": [
        {
          "internalType": "address",
          "name": "owner",
          "type": "address"
        },
        {
          "internalType": "address",
          "name": "operator",
          "type": "address"
        }
      ],
      "name": "isApprovedForAll",
      "outputs": [
        {
          "internalType": "bool",
          "name": "",
          "type": "bool"
        }
      ],
      "stateMutability": "view",
      "type": "function",
      "constant": true
    },
    {
      "inputs": [],
      "name": "name",
      "outputs": [
        {
          "internalType": "string",
          "name": "",
          "type": "string"
        }
      ],
      "stateMutability": "view",
      "type": "function",
      "constant": true
    },
    {
      "inputs": [
        {
          "internalType": "uint256",
          "name": "tokenId",
          "type": "uint256"
        }
      ],
      "name": "ownerOf",
      "outputs": [
        {
          "internalType": "address",
          "name": "",
          "type": "address"
        }
      ],
      "stateMutability": "view",
      "type": "function",
      "constant": true
    },
    {
      "inputs": [
        {
          "internalType": "uint256",
          "name": "",
          "type": "uint256"
        }
      ],
      "name": "papers",
      "outputs": [
        {
          "internalType": "uint256",
          "name": "tokenId",
          "type": "uint256"
        },
        {
          "internalType": "address",
          "name": "owner",
          "type": "address"
        },
        {
          "internalType": "string",
          "name": "author",
          "type": "string"
        },
        {
          "internalType": "string",
          "name": "tokenUri",
          "type": "string"
        },
        {
          "internalType": "bool",
          "name": "allowFunding",
          "type": "bool"
        },
        {
          "internalType": "uint256",
          "name": "fundAmount",
          "type": "uint256"
        },
        {
          "internalType": "uint256",
          "name": "totalAmountFunded",
          "type": "uint256"
        }
      ],
      "stateMutability": "view",
      "type": "function",
      "constant": true
    },
    {
      "inputs": [
        {
          "internalType": "address",
          "name": "from",
          "type": "address"
        },
        {
          "internalType": "address",
          "name": "to",
          "type": "address"
        },
        {
          "internalType": "uint256",
          "name": "tokenId",
          "type": "uint256"
        }
      ],
      "name": "safeTransferFrom",
      "outputs": [],
      "stateMutability": "nonpayable",
      "type": "function"
    },
    {
      "inputs": [
        {
          "internalType": "address",
          "name": "from",
          "type": "address"
        },
        {
          "internalType": "address",
          "name": "to",
          "type": "address"
        },
        {
          "internalType": "uint256",
          "name": "tokenId",
          "type": "uint256"
        },
        {
          "internalType": "bytes",
          "name": "_data",
          "type": "bytes"
        }
      ],
      "name": "safeTransferFrom",
      "outputs": [],
      "stateMutability": "nonpayable",
      "type": "function"
    },
    {
      "inputs": [
        {
          "internalType": "address",
          "name": "operator",
          "type": "address"
        },
        {
          "internalType": "bool",
          "name": "approved",
          "type": "bool"
        }
      ],
      "name": "setApprovalForAll",
      "outputs": [],
      "stateMutability": "nonpayable",
      "type": "function"
    },
    {
      "inputs": [
        {
          "internalType": "bytes4",
          "name": "interfaceId",
          "type": "bytes4"
        }
      ],
      "name": "supportsInterface",
      "outputs": [
        {
          "internalType": "bool",
          "name": "",
          "type": "bool"
        }
      ],
      "stateMutability": "view",
      "type": "function",
      "constant": true
    },
    {
      "inputs": [],
      "name": "symbol",
      "outputs": [
        {
          "internalType": "string",
          "name": "",
          "type": "string"
        }
      ],
      "stateMutability": "view",
      "type": "function",
      "constant": true
    },
    {
      "inputs": [
        {
          "internalType": "uint256",
          "name": "tokenId",
          "type": "uint256"
        }
      ],
      "name": "tokenURI",
      "outputs": [
        {
          "internalType": "string",
          "name": "",
          "type": "string"
        }
      ],
      "stateMutability": "view",
      "type": "function",
      "constant": true
    },
    {
      "inputs": [
        {
          "internalType": "address",
          "name": "from",
          "type": "address"
        },
        {
          "internalType": "address",
          "name": "to",
          "type": "address"
        },
        {
          "internalType": "uint256",
          "name": "tokenId",
          "type": "uint256"
        }
      ],
      "name": "transferFrom",
      "outputs": [],
      "stateMutability": "nonpayable",
      "type": "function"
    },
    {
      "inputs": [
        {
          "internalType": "string",
          "name": "tokenURI",
          "type": "string"
        },
        {
          "internalType": "string",
          "name": "_author",
          "type": "string"
        },
        {
          "internalType": "bool",
          "name": "_isfunding",
          "type": "bool"
        },
        {
          "internalType": "uint256",
          "name": "_fundAmount",
          "type": "uint256"
        }
      ],
      "name": "publish",
      "outputs": [],
      "stateMutability": "nonpayable",
      "type": "function"
    },
    {
      "inputs": [
        {
          "internalType": "uint256",
          "name": "_paperid",
          "type": "uint256"
        }
      ],
      "name": "fundapaper",
      "outputs": [],
      "stateMutability": "payable",
      "type": "function",
      "payable": true
    },
    {
      "inputs": [
        {
          "internalType": "uint256",
          "name": "_paperid",
          "type": "uint256"
        },
        {
          "internalType": "bool",
          "name": "_allowFunding",
          "type": "bool"
        },
        {
          "internalType": "uint256",
          "name": "_amount",
          "type": "uint256"
        }
      ],
      "name": "updatepaper",
      "outputs": [],
      "stateMutability": "nonpayable",
      "type": "function"
    }
  ],
  "bytecode": "0x60806040523480156200001157600080fd5b506040518060400160405280600a81526020017f5061706572486f757365000000000000000000000000000000000000000000008152506040518060400160405280600281526020017f5048000000000000000000000000000000000000000000000000000000000000815250816000908051906020019062000096929190620000b8565b508060019080519060200190620000af929190620000b8565b505050620001cd565b828054620000c69062000168565b90600052602060002090601f016020900481019282620000ea576000855562000136565b82601f106200010557805160ff191683800117855562000136565b8280016001018555821562000136579182015b828111156200013557825182559160200191906001019062000118565b5b50905062000145919062000149565b5090565b5b80821115620001645760008160009055506001016200014a565b5090565b600060028204905060018216806200018157607f821691505b602082108114156200019857620001976200019e565b5b50919050565b7f4e487b7100000000000000000000000000000000000000000000000000000000600052602260045260246000fd5b6134b680620001dd6000396000f3fe6080604052600436106100fe5760003560e01c806370a0823111610095578063b2ed06f711610064578063b2ed06f71461035d578063b88d4fde14610386578063c87b56dd146103af578063e985e9c5146103ec578063f520c1d314610429576100fe565b806370a08231146102a357806392c9a0f6146102e057806395d89b4114610309578063a22cb46514610334576100fe565b806323b872dd116100d157806323b872dd146101d157806342842e0e146101fa5780635e775a27146102235780636352211e14610266576100fe565b806301ffc9a71461010357806306fdde0314610140578063081812fc1461016b578063095ea7b3146101a8575b600080fd5b34801561010f57600080fd5b5061012a600480360381019061012591906122ac565b610445565b6040516101379190612c8b565b60405180910390f35b34801561014c57600080fd5b50610155610527565b6040516101629190612ca6565b60405180910390f35b34801561017757600080fd5b50610192600480360381019061018d9190612391565b6105b9565b60405161019f9190612bd1565b60405180910390f35b3480156101b457600080fd5b506101cf60048036038101906101ca9190612270565b61063e565b005b3480156101dd57600080fd5b506101f860048036038101906101f3919061216a565b610756565b005b34801561020657600080fd5b50610221600480360381019061021c919061216a565b6107b6565b005b34801561022f57600080fd5b5061024a60048036038101906102459190612391565b6107d6565b60405161025d9796959493929190612f43565b60405180910390f35b34801561027257600080fd5b5061028d60048036038101906102889190612391565b610955565b60405161029a9190612bd1565b60405180910390f35b3480156102af57600080fd5b506102ca60048036038101906102c59190612105565b610a07565b6040516102d79190612f28565b60405180910390f35b3480156102ec57600080fd5b50610307600480360381019061030291906122fe565b610abf565b005b34801561031557600080fd5b5061031e610c5a565b60405161032b9190612ca6565b60405180910390f35b34801561034057600080fd5b5061035b60048036038101906103569190612234565b610cec565b005b34801561036957600080fd5b50610384600480360381019061037f91906123ba565b610e6d565b005b34801561039257600080fd5b506103ad60048036038101906103a891906121b9565b610f7c565b005b3480156103bb57600080fd5b506103d660048036038101906103d19190612391565b610fde565b6040516103e39190612ca6565b60405180910390f35b3480156103f857600080fd5b50610413600480360381019061040e919061212e565b611130565b6040516104209190612c8b565b60405180910390f35b610443600480360381019061043e9190612391565b6111c4565b005b60007f80ac58cd000000000000000000000000000000000000000000000000000000007bffffffffffffffffffffffffffffffffffffffffffffffffffffffff1916827bffffffffffffffffffffffffffffffffffffffffffffffffffffffff1916148061051057507f5b5e139f000000000000000000000000000000000000000000000000000000007bffffffffffffffffffffffffffffffffffffffffffffffffffffffff1916827bffffffffffffffffffffffffffffffffffffffffffffffffffffffff1916145b80610520575061051f8261137c565b5b9050919050565b606060008054610536906132ab565b80601f0160208091040260200160405190810160405280929190818152602001828054610562906132ab565b80156105af5780601f10610584576101008083540402835291602001916105af565b820191906000526020600020905b81548152906001019060200180831161059257829003601f168201915b5050505050905090565b60006105c4826113e6565b610603576040517f08c379a00000000000000000000000000000000000000000000000000000000081526004016105fa90612e48565b60405180910390fd5b6004600083815260200190815260200160002060009054906101000a900473ffffffffffffffffffffffffffffffffffffffff169050919050565b600061064982610955565b90508073ffffffffffffffffffffffffffffffffffffffff168373ffffffffffffffffffffffffffffffffffffffff1614156106ba576040517f08c379a00000000000000000000000000000000000000000000000000000000081526004016106b190612ec8565b60405180910390fd5b8073ffffffffffffffffffffffffffffffffffffffff166106d9611452565b73ffffffffffffffffffffffffffffffffffffffff161480610708575061070781610702611452565b611130565b5b610747576040517f08c379a000000000000000000000000000000000000000000000000000000000815260040161073e90612d88565b60405180910390fd5b610751838361145a565b505050565b610767610761611452565b82611513565b6107a6576040517f08c379a000000000000000000000000000000000000000000000000000000000815260040161079d90612ee8565b60405180910390fd5b6107b18383836115f1565b505050565b6107d183838360405180602001604052806000815250610f7c565b505050565b60086020528060005260406000206000915090508060000154908060010160009054906101000a900473ffffffffffffffffffffffffffffffffffffffff1690806002018054610825906132ab565b80601f0160208091040260200160405190810160405280929190818152602001828054610851906132ab565b801561089e5780601f106108735761010080835404028352916020019161089e565b820191906000526020600020905b81548152906001019060200180831161088157829003601f168201915b5050505050908060030180546108b3906132ab565b80601f01602080910402602001604051908101604052809291908181526020018280546108df906132ab565b801561092c5780601f106109015761010080835404028352916020019161092c565b820191906000526020600020905b81548152906001019060200180831161090f57829003601f168201915b5050505050908060040160009054906101000a900460ff16908060050154908060060154905087565b6000806002600084815260200190815260200160002060009054906101000a900473ffffffffffffffffffffffffffffffffffffffff169050600073ffffffffffffffffffffffffffffffffffffffff168173ffffffffffffffffffffffffffffffffffffffff1614156109fe576040517f08c379a00000000000000000000000000000000000000000000000000000000081526004016109f590612dc8565b60405180910390fd5b80915050919050565b60008073ffffffffffffffffffffffffffffffffffffffff168273ffffffffffffffffffffffffffffffffffffffff161415610a78576040517f08c379a0000000000000000000000000000000000000000000000000000000008152600401610a6f90612da8565b60405180910390fd5b600360008373ffffffffffffffffffffffffffffffffffffffff1673ffffffffffffffffffffffffffffffffffffffff168152602001908152602001600020549050919050565b610ac9600761184d565b6000610ad56007611863565b9050610ae13382611871565b610aeb8186611a3f565b60006040518060e001604052808381526020013373ffffffffffffffffffffffffffffffffffffffff16815260200186815260200187815260200185151581526020018481526020016000815250905080600860008481526020019081526020016000206000820151816000015560208201518160010160006101000a81548173ffffffffffffffffffffffffffffffffffffffff021916908373ffffffffffffffffffffffffffffffffffffffff1602179055506040820151816002019080519060200190610bbc929190611f29565b506060820151816003019080519060200190610bd9929190611f29565b5060808201518160040160006101000a81548160ff02191690831515021790555060a0820151816005015560c082015181600601559050507f45c70252f5268cf8b290259a05cdbdd0c3ebc7089275d42d878da93339c86792828787338888604051610c4a96959493929190612ff7565b60405180910390a1505050505050565b606060018054610c69906132ab565b80601f0160208091040260200160405190810160405280929190818152602001828054610c95906132ab565b8015610ce25780601f10610cb757610100808354040283529160200191610ce2565b820191906000526020600020905b815481529060010190602001808311610cc557829003601f168201915b5050505050905090565b610cf4611452565b73ffffffffffffffffffffffffffffffffffffffff168273ffffffffffffffffffffffffffffffffffffffff161415610d62576040517f08c379a0000000000000000000000000000000000000000000000000000000008152600401610d5990612d28565b60405180910390fd5b8060056000610d6f611452565b73ffffffffffffffffffffffffffffffffffffffff1673ffffffffffffffffffffffffffffffffffffffff16815260200190815260200160002060008473ffffffffffffffffffffffffffffffffffffffff1673ffffffffffffffffffffffffffffffffffffffff16815260200190815260200160002060006101000a81548160ff0219169083151502179055508173ffffffffffffffffffffffffffffffffffffffff16610e1c611452565b73ffffffffffffffffffffffffffffffffffffffff167f17307eab39ab6107e8899845ad3d59bd9653f200f220920489ca2b5937696c3183604051610e619190612c8b565b60405180910390a35050565b60006008600085815260200190815260200160002090508060010160009054906101000a900473ffffffffffffffffffffffffffffffffffffffff1673ffffffffffffffffffffffffffffffffffffffff163373ffffffffffffffffffffffffffffffffffffffff1614610f16576040517f08c379a0000000000000000000000000000000000000000000000000000000008152600401610f0d90612d68565b60405180910390fd5b828160040160006101000a81548160ff0219169083151502179055508181600501819055507ff967a192d06cce9fca6d0f7a4c64eb194bc5b968f4081f2b6dcd9600d14f2f54848484604051610f6e93929190612fc0565b60405180910390a150505050565b610f8d610f87611452565b83611513565b610fcc576040517f08c379a0000000000000000000000000000000000000000000000000000000008152600401610fc390612ee8565b60405180910390fd5b610fd884848484611ab3565b50505050565b6060610fe9826113e6565b611028576040517f08c379a000000000000000000000000000000000000000000000000000000000815260040161101f90612e28565b60405180910390fd5b6000600660008481526020019081526020016000208054611048906132ab565b80601f0160208091040260200160405190810160405280929190818152602001828054611074906132ab565b80156110c15780601f10611096576101008083540402835291602001916110c1565b820191906000526020600020905b8154815290600101906020018083116110a457829003601f168201915b5050505050905060006110d2611b0f565b90506000815114156110e857819250505061112b565b60008251111561111d578082604051602001611105929190612bad565b6040516020818303038152906040529250505061112b565b61112684611b26565b925050505b919050565b6000600560008473ffffffffffffffffffffffffffffffffffffffff1673ffffffffffffffffffffffffffffffffffffffff16815260200190815260200160002060008373ffffffffffffffffffffffffffffffffffffffff1673ffffffffffffffffffffffffffffffffffffffff16815260200190815260200160002060009054906101000a900460ff16905092915050565b6000600860008381526020019081526020016000209050600115158160040160009054906101000a900460ff16151514611233576040517f08c379a000000000000000000000000000000000000000000000000000000000815260040161122a90612ea8565b60405180910390fd5b8060060154816005015461124791906131c1565b341115611289576040517f08c379a000000000000000000000000000000000000000000000000000000000815260040161128090612f08565b60405180910390fd5b8060010160009054906101000a900473ffffffffffffffffffffffffffffffffffffffff1673ffffffffffffffffffffffffffffffffffffffff166108fc349081150290604051600060405180830381858888f193505050501580156112f3573d6000803e3d6000fd5b506000816006015490503481611309919061313a565b90508082600601819055507f2ad49d850d9455fc5a24e33dd8127ee3ff936c5989ccc48806ca130add2a5afc338360010160009054906101000a900473ffffffffffffffffffffffffffffffffffffffff1634868560405161136f959493929190612c38565b60405180910390a1505050565b60007f01ffc9a7000000000000000000000000000000000000000000000000000000007bffffffffffffffffffffffffffffffffffffffffffffffffffffffff1916827bffffffffffffffffffffffffffffffffffffffffffffffffffffffff1916149050919050565b60008073ffffffffffffffffffffffffffffffffffffffff166002600084815260200190815260200160002060009054906101000a900473ffffffffffffffffffffffffffffffffffffffff1673ffffffffffffffffffffffffffffffffffffffff1614159050919050565b600033905090565b816004600083815260200190815260200160002060006101000a81548173ffffffffffffffffffffffffffffffffffffffff021916908373ffffffffffffffffffffffffffffffffffffffff160217905550808273ffffffffffffffffffffffffffffffffffffffff166114cd83610955565b73ffffffffffffffffffffffffffffffffffffffff167f8c5be1e5ebec7d5bd14f71427d1e84f3dd0314c0f7b2291e5b200ac8c7c3b92560405160405180910390a45050565b600061151e826113e6565b61155d576040517f08c379a000000000000000000000000000000000000000000000000000000000815260040161155490612d48565b60405180910390fd5b600061156883610955565b90508073ffffffffffffffffffffffffffffffffffffffff168473ffffffffffffffffffffffffffffffffffffffff1614806115d757508373ffffffffffffffffffffffffffffffffffffffff166115bf846105b9565b73ffffffffffffffffffffffffffffffffffffffff16145b806115e857506115e78185611130565b5b91505092915050565b8273ffffffffffffffffffffffffffffffffffffffff1661161182610955565b73ffffffffffffffffffffffffffffffffffffffff1614611667576040517f08c379a000000000000000000000000000000000000000000000000000000000815260040161165e90612e68565b60405180910390fd5b600073ffffffffffffffffffffffffffffffffffffffff168273ffffffffffffffffffffffffffffffffffffffff1614156116d7576040517f08c379a00000000000000000000000000000000000000000000000000000000081526004016116ce90612d08565b60405180910390fd5b6116e2838383611bcd565b6116ed60008261145a565b6001600360008573ffffffffffffffffffffffffffffffffffffffff1673ffffffffffffffffffffffffffffffffffffffff168152602001908152602001600020600082825461173d91906131c1565b925050819055506001600360008473ffffffffffffffffffffffffffffffffffffffff1673ffffffffffffffffffffffffffffffffffffffff1681526020019081526020016000206000828254611794919061313a565b92505081905550816002600083815260200190815260200160002060006101000a81548173ffffffffffffffffffffffffffffffffffffffff021916908373ffffffffffffffffffffffffffffffffffffffff160217905550808273ffffffffffffffffffffffffffffffffffffffff168473ffffffffffffffffffffffffffffffffffffffff167fddf252ad1be2c89b69c2b068fc378daa952ba7f163c4a11628f55a4df523b3ef60405160405180910390a4505050565b6001816000016000828254019250508190555050565b600081600001549050919050565b600073ffffffffffffffffffffffffffffffffffffffff168273ffffffffffffffffffffffffffffffffffffffff1614156118e1576040517f08c379a00000000000000000000000000000000000000000000000000000000081526004016118d890612e08565b60405180910390fd5b6118ea816113e6565b1561192a576040517f08c379a000000000000000000000000000000000000000000000000000000000815260040161192190612ce8565b60405180910390fd5b61193660008383611bcd565b6001600360008473ffffffffffffffffffffffffffffffffffffffff1673ffffffffffffffffffffffffffffffffffffffff1681526020019081526020016000206000828254611986919061313a565b92505081905550816002600083815260200190815260200160002060006101000a81548173ffffffffffffffffffffffffffffffffffffffff021916908373ffffffffffffffffffffffffffffffffffffffff160217905550808273ffffffffffffffffffffffffffffffffffffffff16600073ffffffffffffffffffffffffffffffffffffffff167fddf252ad1be2c89b69c2b068fc378daa952ba7f163c4a11628f55a4df523b3ef60405160405180910390a45050565b611a48826113e6565b611a87576040517f08c379a0000000000000000000000000000000000000000000000000000000008152600401611a7e90612de8565b60405180910390fd5b80600660008481526020019081526020016000209080519060200190611aae929190611f29565b505050565b611abe8484846115f1565b611aca84848484611bd2565b611b09576040517f08c379a0000000000000000000000000000000000000000000000000000000008152600401611b0090612cc8565b60405180910390fd5b50505050565b606060405180602001604052806000815250905090565b6060611b31826113e6565b611b70576040517f08c379a0000000000000000000000000000000000000000000000000000000008152600401611b6790612e88565b60405180910390fd5b6000611b7a611b0f565b90506000815111611b9a5760405180602001604052806000815250611bc5565b80611ba484611d69565b604051602001611bb5929190612bad565b6040516020818303038152906040525b915050919050565b505050565b6000611bf38473ffffffffffffffffffffffffffffffffffffffff16611f16565b15611d5c578373ffffffffffffffffffffffffffffffffffffffff1663150b7a02611c1c611452565b8786866040518563ffffffff1660e01b8152600401611c3e9493929190612bec565b602060405180830381600087803b158015611c5857600080fd5b505af1925050508015611c8957506040513d601f19601f82011682018060405250810190611c8691906122d5565b60015b611d0c573d8060008114611cb9576040519150601f19603f3d011682016040523d82523d6000602084013e611cbe565b606091505b50600081511415611d04576040517f08c379a0000000000000000000000000000000000000000000000000000000008152600401611cfb90612cc8565b60405180910390fd5b805181602001fd5b63150b7a0260e01b7bffffffffffffffffffffffffffffffffffffffffffffffffffffffff1916817bffffffffffffffffffffffffffffffffffffffffffffffffffffffff191614915050611d61565b600190505b949350505050565b60606000821415611db1576040518060400160405280600181526020017f30000000000000000000000000000000000000000000000000000000000000008152509050611f11565b600082905060005b60008214611de3578080611dcc906132dd565b915050600a82611ddc9190613190565b9150611db9565b60008167ffffffffffffffff811115611e25577f4e487b7100000000000000000000000000000000000000000000000000000000600052604160045260246000fd5b6040519080825280601f01601f191660200182016040528015611e575781602001600182028036833780820191505090505b5090505b60008514611f0a57600182611e7091906131c1565b9150600a85611e7f9190613326565b6030611e8b919061313a565b60f81b818381518110611ec7577f4e487b7100000000000000000000000000000000000000000000000000000000600052603260045260246000fd5b60200101907effffffffffffffffffffffffffffffffffffffffffffffffffffffffffffff1916908160001a905350600a85611f039190613190565b9450611e5b565b8093505050505b919050565b600080823b905060008111915050919050565b828054611f35906132ab565b90600052602060002090601f016020900481019282611f575760008555611f9e565b82601f10611f7057805160ff1916838001178555611f9e565b82800160010185558215611f9e579182015b82811115611f9d578251825591602001919060010190611f82565b5b509050611fab9190611faf565b5090565b5b80821115611fc8576000816000905550600101611fb0565b5090565b6000611fdf611fda84613097565b613066565b905082815260208101848484011115611ff757600080fd5b612002848285613269565b509392505050565b600061201d612018846130c7565b613066565b90508281526020810184848401111561203557600080fd5b612040848285613269565b509392505050565b60008135905061205781613424565b92915050565b60008135905061206c8161343b565b92915050565b60008135905061208181613452565b92915050565b60008151905061209681613452565b92915050565b600082601f8301126120ad57600080fd5b81356120bd848260208601611fcc565b91505092915050565b600082601f8301126120d757600080fd5b81356120e784826020860161200a565b91505092915050565b6000813590506120ff81613469565b92915050565b60006020828403121561211757600080fd5b600061212584828501612048565b91505092915050565b6000806040838503121561214157600080fd5b600061214f85828601612048565b925050602061216085828601612048565b9150509250929050565b60008060006060848603121561217f57600080fd5b600061218d86828701612048565b935050602061219e86828701612048565b92505060406121af868287016120f0565b9150509250925092565b600080600080608085870312156121cf57600080fd5b60006121dd87828801612048565b94505060206121ee87828801612048565b93505060406121ff878288016120f0565b925050606085013567ffffffffffffffff81111561221c57600080fd5b6122288782880161209c565b91505092959194509250565b6000806040838503121561224757600080fd5b600061225585828601612048565b92505060206122668582860161205d565b9150509250929050565b6000806040838503121561228357600080fd5b600061229185828601612048565b92505060206122a2858286016120f0565b9150509250929050565b6000602082840312156122be57600080fd5b60006122cc84828501612072565b91505092915050565b6000602082840312156122e757600080fd5b60006122f584828501612087565b91505092915050565b6000806000806080858703121561231457600080fd5b600085013567ffffffffffffffff81111561232e57600080fd5b61233a878288016120c6565b945050602085013567ffffffffffffffff81111561235757600080fd5b612363878288016120c6565b93505060406123748782880161205d565b9250506060612385878288016120f0565b91505092959194509250565b6000602082840312156123a357600080fd5b60006123b1848285016120f0565b91505092915050565b6000806000606084860312156123cf57600080fd5b60006123dd868287016120f0565b93505060206123ee8682870161205d565b92505060406123ff868287016120f0565b9150509250925092565b612412816131f5565b82525050565b61242181613207565b82525050565b6000612432826130f7565b61243c818561310d565b935061244c818560208601613278565b61245581613413565b840191505092915050565b600061246b82613102565b612475818561311e565b9350612485818560208601613278565b61248e81613413565b840191505092915050565b60006124a482613102565b6124ae818561312f565b93506124be818560208601613278565b80840191505092915050565b60006124d760328361311e565b91507f4552433732313a207472616e7366657220746f206e6f6e20455243373231526560008301527f63656976657220696d706c656d656e74657200000000000000000000000000006020830152604082019050919050565b600061253d601c8361311e565b91507f4552433732313a20746f6b656e20616c7265616479206d696e746564000000006000830152602082019050919050565b600061257d60248361311e565b91507f4552433732313a207472616e7366657220746f20746865207a65726f2061646460008301527f72657373000000000000000000000000000000000000000000000000000000006020830152604082019050919050565b60006125e360198361311e565b91507f4552433732313a20617070726f766520746f2063616c6c6572000000000000006000830152602082019050919050565b6000612623602c8361311e565b91507f4552433732313a206f70657261746f7220717565727920666f72206e6f6e657860008301527f697374656e7420746f6b656e00000000000000000000000000000000000000006020830152604082019050919050565b6000612689602d8361311e565b91507f796f7520617265206e6f7420746865206f776e6572206f66207468697320706160008301527f70657220746f20757064617465000000000000000000000000000000000000006020830152604082019050919050565b60006126ef60388361311e565b91507f4552433732313a20617070726f76652063616c6c6572206973206e6f74206f7760008301527f6e6572206e6f7220617070726f76656420666f7220616c6c00000000000000006020830152604082019050919050565b6000612755602a8361311e565b91507f4552433732313a2062616c616e636520717565727920666f7220746865207a6560008301527f726f2061646472657373000000000000000000000000000000000000000000006020830152604082019050919050565b60006127bb60298361311e565b91507f4552433732313a206f776e657220717565727920666f72206e6f6e657869737460008301527f656e7420746f6b656e00000000000000000000000000000000000000000000006020830152604082019050919050565b6000612821602e8361311e565b91507f45524337323155524953746f726167653a2055524920736574206f66206e6f6e60008301527f6578697374656e7420746f6b656e0000000000000000000000000000000000006020830152604082019050919050565b600061288760208361311e565b91507f4552433732313a206d696e7420746f20746865207a65726f20616464726573736000830152602082019050919050565b60006128c760318361311e565b91507f45524337323155524953746f726167653a2055524920717565727920666f722060008301527f6e6f6e6578697374656e7420746f6b656e0000000000000000000000000000006020830152604082019050919050565b600061292d602c8361311e565b91507f4552433732313a20617070726f76656420717565727920666f72206e6f6e657860008301527f697374656e7420746f6b656e00000000000000000000000000000000000000006020830152604082019050919050565b600061299360298361311e565b91507f4552433732313a207472616e73666572206f6620746f6b656e2074686174206960008301527f73206e6f74206f776e00000000000000000000000000000000000000000000006020830152604082019050919050565b60006129f9602f8361311e565b91507f4552433732314d657461646174613a2055524920717565727920666f72206e6f60008301527f6e6578697374656e7420746f6b656e00000000000000000000000000000000006020830152604082019050919050565b6000612a5f60138361311e565b91507f46756e64696e67206e6f7420616c6c6f776564000000000000000000000000006000830152602082019050919050565b6000612a9f60218361311e565b91507f4552433732313a20617070726f76616c20746f2063757272656e74206f776e6560008301527f72000000000000000000000000000000000000000000000000000000000000006020830152604082019050919050565b6000612b0560318361311e565b91507f4552433732313a207472616e736665722063616c6c6572206973206e6f74206f60008301527f776e6572206e6f7220617070726f7665640000000000000000000000000000006020830152604082019050919050565b6000612b6b60178361311e565b91507f6e6f206d6f72652046756e64696e6720616c6c6f7765640000000000000000006000830152602082019050919050565b612ba78161325f565b82525050565b6000612bb98285612499565b9150612bc58284612499565b91508190509392505050565b6000602082019050612be66000830184612409565b92915050565b6000608082019050612c016000830187612409565b612c0e6020830186612409565b612c1b6040830185612b9e565b8181036060830152612c2d8184612427565b905095945050505050565b600060a082019050612c4d6000830188612409565b612c5a6020830187612409565b612c676040830186612b9e565b612c746060830185612b9e565b612c816080830184612b9e565b9695505050505050565b6000602082019050612ca06000830184612418565b92915050565b60006020820190508181036000830152612cc08184612460565b905092915050565b60006020820190508181036000830152612ce1816124ca565b9050919050565b60006020820190508181036000830152612d0181612530565b9050919050565b60006020820190508181036000830152612d2181612570565b9050919050565b60006020820190508181036000830152612d41816125d6565b9050919050565b60006020820190508181036000830152612d6181612616565b9050919050565b60006020820190508181036000830152612d818161267c565b9050919050565b60006020820190508181036000830152612da1816126e2565b9050919050565b60006020820190508181036000830152612dc181612748565b9050919050565b60006020820190508181036000830152612de1816127ae565b9050919050565b60006020820190508181036000830152612e0181612814565b9050919050565b60006020820190508181036000830152612e218161287a565b9050919050565b60006020820190508181036000830152612e41816128ba565b9050919050565b60006020820190508181036000830152612e6181612920565b9050919050565b60006020820190508181036000830152612e8181612986565b9050919050565b60006020820190508181036000830152612ea1816129ec565b9050919050565b60006020820190508181036000830152612ec181612a52565b9050919050565b60006020820190508181036000830152612ee181612a92565b9050919050565b60006020820190508181036000830152612f0181612af8565b9050919050565b60006020820190508181036000830152612f2181612b5e565b9050919050565b6000602082019050612f3d6000830184612b9e565b92915050565b600060e082019050612f58600083018a612b9e565b612f656020830189612409565b8181036040830152612f778188612460565b90508181036060830152612f8b8187612460565b9050612f9a6080830186612418565b612fa760a0830185612b9e565b612fb460c0830184612b9e565b98975050505050505050565b6000606082019050612fd56000830186612b9e565b612fe26020830185612418565b612fef6040830184612b9e565b949350505050565b600060c08201905061300c6000830189612b9e565b818103602083015261301e8188612460565b905081810360408301526130328187612460565b90506130416060830186612409565b61304e6080830185612418565b61305b60a0830184612b9e565b979650505050505050565b6000604051905081810181811067ffffffffffffffff8211171561308d5761308c6133e4565b5b8060405250919050565b600067ffffffffffffffff8211156130b2576130b16133e4565b5b601f19601f8301169050602081019050919050565b600067ffffffffffffffff8211156130e2576130e16133e4565b5b601f19601f8301169050602081019050919050565b600081519050919050565b600081519050919050565b600082825260208201905092915050565b600082825260208201905092915050565b600081905092915050565b60006131458261325f565b91506131508361325f565b9250827fffffffffffffffffffffffffffffffffffffffffffffffffffffffffffffffff0382111561318557613184613357565b5b828201905092915050565b600061319b8261325f565b91506131a68361325f565b9250826131b6576131b5613386565b5b828204905092915050565b60006131cc8261325f565b91506131d78361325f565b9250828210156131ea576131e9613357565b5b828203905092915050565b60006132008261323f565b9050919050565b60008115159050919050565b60007fffffffff0000000000000000000000000000000000000000000000000000000082169050919050565b600073ffffffffffffffffffffffffffffffffffffffff82169050919050565b6000819050919050565b82818337600083830152505050565b60005b8381101561329657808201518184015260208101905061327b565b838111156132a5576000848401525b50505050565b600060028204905060018216806132c357607f821691505b602082108114156132d7576132d66133b5565b5b50919050565b60006132e88261325f565b91507fffffffffffffffffffffffffffffffffffffffffffffffffffffffffffffffff82141561331b5761331a613357565b5b600182019050919050565b60006133318261325f565b915061333c8361325f565b92508261334c5761334b613386565b5b828206905092915050565b7f4e487b7100000000000000000000000000000000000000000000000000000000600052601160045260246000fd5b7f4e487b7100000000000000000000000000000000000000000000000000000000600052601260045260246000fd5b7f4e487b7100000000000000000000000000000000000000000000000000000000600052602260045260246000fd5b7f4e487b7100000000000000000000000000000000000000000000000000000000600052604160045260246000fd5b6000601f19601f8301169050919050565b61342d816131f5565b811461343857600080fd5b50565b61344481613207565b811461344f57600080fd5b50565b61345b81613213565b811461346657600080fd5b50565b6134728161325f565b811461347d57600080fd5b5056fea26469706673582212203ec349752ff287f3054cba6b70a2dd0cbba060837a23847e53ad42706e89682164736f6c63430008000033",
  "immutableReferences": {},
  "source": "// SPDX-License-Identifier: MIT\npragma solidity ^0.8.0;\n\nimport \"@openzeppelin/contracts/token/ERC721/ERC721.sol\";\nimport \"@openzeppelin/contracts/token/ERC721/extensions/ERC721URIStorage.sol\";\nimport \"@openzeppelin/contracts/utils/Counters.sol\";\n\ncontract PaperHouse is ERC721URIStorage {\n    using Counters for Counters.Counter;\n    Counters.Counter private _tokenIds;\n\n    constructor() ERC721(\"PaperHouse\", \"PH\") {}\n\n    event Published(\n        uint256 paperId,\n        string tokenUri,\n        string author,\n        address owner,\n        bool allowFunding,\n        uint256 fundAmount\n    );\n    event Funding(\n        address from,\n        address to,\n        uint256 amount,\n        uint256 paperId,\n        uint256 totalAmountFunded\n    );\n    event UpdatePaper(uint256 paperId, bool allowFunding, uint256 amount);\n\n    struct ResearchPaper {\n        uint256 tokenId;\n        address owner;\n        string author;\n        string tokenUri;\n        bool allowFunding;\n        uint256 fundAmount;\n        uint256 totalAmountFunded;\n    }\n    mapping(uint256 => ResearchPaper) public papers;\n\n    function publish(\n        string memory tokenURI,\n        string memory _author,\n        bool _isfunding,\n        uint256 _fundAmount\n    ) public {\n        _tokenIds.increment();\n\n        uint256 newtokenId = _tokenIds.current();\n\n        _mint(msg.sender, newtokenId);\n        _setTokenURI(newtokenId, tokenURI);\n\n        ResearchPaper memory rpaper = ResearchPaper(\n            newtokenId,\n            msg.sender,\n            _author,\n            tokenURI,\n            _isfunding,\n            _fundAmount,\n            0\n        );\n\n        papers[newtokenId] = rpaper;\n\n        emit Published(\n            newtokenId,\n            tokenURI,\n            _author,\n            msg.sender,\n            _isfunding,\n            _fundAmount\n        );\n    }\n\n    function fundapaper(uint256 _paperid) public payable {\n        ResearchPaper storage rpaper = papers[_paperid];\n\n        require(rpaper.allowFunding == true, \"Funding not allowed\");\n\n        require(\n            msg.value <= (rpaper.fundAmount - rpaper.totalAmountFunded),\n            \"no more Funding allowed\"\n        );\n\n        payable(rpaper.owner).transfer(msg.value);\n\n        uint256 amount = rpaper.totalAmountFunded;\n\n        amount += msg.value;\n        rpaper.totalAmountFunded = amount;\n\n        emit Funding(msg.sender, rpaper.owner, msg.value, _paperid, amount);\n    }\n\n    function updatepaper(\n        uint256 _paperid,\n        bool _allowFunding,\n        uint256 _amount\n    ) public {\n        ResearchPaper storage rpaper = papers[_paperid];\n        require(\n            msg.sender == rpaper.owner,\n            \"you are not the owner of this paper to update\"\n        );\n        rpaper.allowFunding = _allowFunding;\n        rpaper.fundAmount = _amount;\n\n        emit UpdatePaper(_paperid, _allowFunding, _amount);\n    }\n}\n",
  "sourcePath": "/home/sairajkapdi/Documents/CODE STUFF/paperHouse/PAPER-HOUSE-FINAL-SUBMISSION/PaperHouse/contracts/paperhouse.sol",
  "compiler": {
    "name": "solc",
    "version": "0.8.0+commit.c7dfd78e.Emscripten.clang"
  },
  "schemaVersion": "3.4.1",
  "updatedAt": "2021-07-29T13:29:47.371Z",
  "networkType": "ethereum",
  "devdoc": {
    "kind": "dev",
    "methods": {
      "approve(address,uint256)": {
        "details": "See {IERC721-approve}."
      },
      "balanceOf(address)": {
        "details": "See {IERC721-balanceOf}."
      },
      "getApproved(uint256)": {
        "details": "See {IERC721-getApproved}."
      },
      "isApprovedForAll(address,address)": {
        "details": "See {IERC721-isApprovedForAll}."
      },
      "name()": {
        "details": "See {IERC721Metadata-name}."
      },
      "ownerOf(uint256)": {
        "details": "See {IERC721-ownerOf}."
      },
      "safeTransferFrom(address,address,uint256)": {
        "details": "See {IERC721-safeTransferFrom}."
      },
      "safeTransferFrom(address,address,uint256,bytes)": {
        "details": "See {IERC721-safeTransferFrom}."
      },
      "setApprovalForAll(address,bool)": {
        "details": "See {IERC721-setApprovalForAll}."
      },
      "supportsInterface(bytes4)": {
        "details": "See {IERC165-supportsInterface}."
      },
      "symbol()": {
        "details": "See {IERC721Metadata-symbol}."
      },
      "tokenURI(uint256)": {
        "details": "See {IERC721Metadata-tokenURI}."
      },
      "transferFrom(address,address,uint256)": {
        "details": "See {IERC721-transferFrom}."
      }
    },
    "version": 1
  },
  "userdoc": {
    "kind": "user",
    "methods": {},
    "version": 1
  }
}