{
  "contractName": "PaperHouse",
  "abi": [
    {
      "inputs": [],
      "stateMutability": "nonpayable",
      "type": "constructor"
    },
    {
      "anonymous": false,
      "inputs": [
        {
          "indexed": true,
          "internalType": "address",
          "name": "owner",
          "type": "address"
        },
        {
          "indexed": true,
          "internalType": "address",
          "name": "approved",
          "type": "address"
        },
        {
          "indexed": true,
          "internalType": "uint256",
          "name": "tokenId",
          "type": "uint256"
        }
      ],
      "name": "Approval",
      "type": "event"
    },
    {
      "anonymous": false,
      "inputs": [
        {
          "indexed": true,
          "internalType": "address",
          "name": "owner",
          "type": "address"
        },
        {
          "indexed": true,
          "internalType": "address",
          "name": "operator",
          "type": "address"
        },
        {
          "indexed": false,
          "internalType": "bool",
          "name": "approved",
          "type": "bool"
        }
      ],
      "name": "ApprovalForAll",
      "type": "event"
    },
    {
      "anonymous": false,
      "inputs": [
        {
          "indexed": false,
          "internalType": "address",
          "name": "from",
          "type": "address"
        },
        {
          "indexed": false,
          "internalType": "address",
          "name": "to",
          "type": "address"
        },
        {
          "indexed": false,
          "internalType": "uint256",
          "name": "amount",
          "type": "uint256"
        },
        {
          "indexed": false,
          "internalType": "uint256",
          "name": "paperid",
          "type": "uint256"
        },
        {
          "indexed": false,
          "internalType": "uint256",
          "name": "totalAmountFunded",
          "type": "uint256"
        }
      ],
      "name": "Funding",
      "type": "event"
    },
    {
      "anonymous": false,
      "inputs": [
        {
          "indexed": false,
          "internalType": "uint256",
          "name": "tokenId",
          "type": "uint256"
        },
        {
          "indexed": false,
          "internalType": "string",
          "name": "tokenUri",
          "type": "string"
        },
        {
          "indexed": false,
          "internalType": "string",
          "name": "author",
          "type": "string"
        },
        {
          "indexed": false,
          "internalType": "address",
          "name": "owner",
          "type": "address"
        },
        {
          "indexed": false,
          "internalType": "bool",
          "name": "allowFunding",
          "type": "bool"
        },
        {
          "indexed": false,
          "internalType": "uint256",
          "name": "fundAmount",
          "type": "uint256"
        }
      ],
      "name": "Published",
      "type": "event"
    },
    {
      "anonymous": false,
      "inputs": [
        {
          "indexed": true,
          "internalType": "address",
          "name": "from",
          "type": "address"
        },
        {
          "indexed": true,
          "internalType": "address",
          "name": "to",
          "type": "address"
        },
        {
          "indexed": true,
          "internalType": "uint256",
          "name": "tokenId",
          "type": "uint256"
        }
      ],
      "name": "Transfer",
      "type": "event"
    },
    {
      "anonymous": false,
      "inputs": [
        {
          "indexed": false,
          "internalType": "uint256",
          "name": "paperid",
          "type": "uint256"
        },
        {
          "indexed": false,
          "internalType": "bool",
          "name": "allowFunding",
          "type": "bool"
        },
        {
          "indexed": false,
          "internalType": "uint256",
          "name": "amount",
          "type": "uint256"
        }
      ],
      "name": "UpdatePaper",
      "type": "event"
    },
    {
      "inputs": [
        {
          "internalType": "address",
          "name": "to",
          "type": "address"
        },
        {
          "internalType": "uint256",
          "name": "tokenId",
          "type": "uint256"
        }
      ],
      "name": "approve",
      "outputs": [],
      "stateMutability": "nonpayable",
      "type": "function"
    },
    {
      "inputs": [
        {
          "internalType": "address",
          "name": "owner",
          "type": "address"
        }
      ],
      "name": "balanceOf",
      "outputs": [
        {
          "internalType": "uint256",
          "name": "",
          "type": "uint256"
        }
      ],
      "stateMutability": "view",
      "type": "function",
      "constant": true
    },
    {
      "inputs": [
        {
          "internalType": "uint256",
          "name": "",
          "type": "uint256"
        }
      ],
      "name": "donations",
      "outputs": [
        {
          "internalType": "address",
          "name": "from",
          "type": "address"
        },
        {
          "internalType": "address",
          "name": "to",
          "type": "address"
        },
        {
          "internalType": "uint256",
          "name": "amount",
          "type": "uint256"
        },
        {
          "internalType": "uint256",
          "name": "paperId",
          "type": "uint256"
        }
      ],
      "stateMutability": "view",
      "type": "function",
      "constant": true
    },
    {
      "inputs": [
        {
          "internalType": "uint256",
          "name": "tokenId",
          "type": "uint256"
        }
      ],
      "name": "getApproved",
      "outputs": [
        {
          "internalType": "address",
          "name": "",
          "type": "address"
        }
      ],
      "stateMutability": "view",
      "type": "function",
      "constant": true
    },
    {
      "inputs": [
        {
          "internalType": "address",
          "name": "owner",
          "type": "address"
        },
        {
          "internalType": "address",
          "name": "operator",
          "type": "address"
        }
      ],
      "name": "isApprovedForAll",
      "outputs": [
        {
          "internalType": "bool",
          "name": "",
          "type": "bool"
        }
      ],
      "stateMutability": "view",
      "type": "function",
      "constant": true
    },
    {
      "inputs": [],
      "name": "name",
      "outputs": [
        {
          "internalType": "string",
          "name": "",
          "type": "string"
        }
      ],
      "stateMutability": "view",
      "type": "function",
      "constant": true
    },
    {
      "inputs": [
        {
          "internalType": "uint256",
          "name": "tokenId",
          "type": "uint256"
        }
      ],
      "name": "ownerOf",
      "outputs": [
        {
          "internalType": "address",
          "name": "",
          "type": "address"
        }
      ],
      "stateMutability": "view",
      "type": "function",
      "constant": true
    },
    {
      "inputs": [
        {
          "internalType": "uint256",
          "name": "",
          "type": "uint256"
        }
      ],
      "name": "papers",
      "outputs": [
        {
          "internalType": "uint256",
          "name": "tokenId",
          "type": "uint256"
        },
        {
          "internalType": "address",
          "name": "owner",
          "type": "address"
        },
        {
          "internalType": "string",
          "name": "author",
          "type": "string"
        },
        {
          "internalType": "string",
          "name": "tokenUri",
          "type": "string"
        },
        {
          "internalType": "bool",
          "name": "allowFunding",
          "type": "bool"
        },
        {
          "internalType": "uint256",
          "name": "fundAmount",
          "type": "uint256"
        },
        {
          "internalType": "uint256",
          "name": "totalAmountFunded",
          "type": "uint256"
        }
      ],
      "stateMutability": "view",
      "type": "function",
      "constant": true
    },
    {
      "inputs": [
        {
          "internalType": "address",
          "name": "from",
          "type": "address"
        },
        {
          "internalType": "address",
          "name": "to",
          "type": "address"
        },
        {
          "internalType": "uint256",
          "name": "tokenId",
          "type": "uint256"
        }
      ],
      "name": "safeTransferFrom",
      "outputs": [],
      "stateMutability": "nonpayable",
      "type": "function"
    },
    {
      "inputs": [
        {
          "internalType": "address",
          "name": "from",
          "type": "address"
        },
        {
          "internalType": "address",
          "name": "to",
          "type": "address"
        },
        {
          "internalType": "uint256",
          "name": "tokenId",
          "type": "uint256"
        },
        {
          "internalType": "bytes",
          "name": "_data",
          "type": "bytes"
        }
      ],
      "name": "safeTransferFrom",
      "outputs": [],
      "stateMutability": "nonpayable",
      "type": "function"
    },
    {
      "inputs": [
        {
          "internalType": "address",
          "name": "operator",
          "type": "address"
        },
        {
          "internalType": "bool",
          "name": "approved",
          "type": "bool"
        }
      ],
      "name": "setApprovalForAll",
      "outputs": [],
      "stateMutability": "nonpayable",
      "type": "function"
    },
    {
      "inputs": [
        {
          "internalType": "bytes4",
          "name": "interfaceId",
          "type": "bytes4"
        }
      ],
      "name": "supportsInterface",
      "outputs": [
        {
          "internalType": "bool",
          "name": "",
          "type": "bool"
        }
      ],
      "stateMutability": "view",
      "type": "function",
      "constant": true
    },
    {
      "inputs": [],
      "name": "symbol",
      "outputs": [
        {
          "internalType": "string",
          "name": "",
          "type": "string"
        }
      ],
      "stateMutability": "view",
      "type": "function",
      "constant": true
    },
    {
      "inputs": [
        {
          "internalType": "uint256",
          "name": "tokenId",
          "type": "uint256"
        }
      ],
      "name": "tokenURI",
      "outputs": [
        {
          "internalType": "string",
          "name": "",
          "type": "string"
        }
      ],
      "stateMutability": "view",
      "type": "function",
      "constant": true
    },
    {
      "inputs": [
        {
          "internalType": "address",
          "name": "from",
          "type": "address"
        },
        {
          "internalType": "address",
          "name": "to",
          "type": "address"
        },
        {
          "internalType": "uint256",
          "name": "tokenId",
          "type": "uint256"
        }
      ],
      "name": "transferFrom",
      "outputs": [],
      "stateMutability": "nonpayable",
      "type": "function"
    },
    {
      "inputs": [
        {
          "internalType": "string",
          "name": "tokenURI",
          "type": "string"
        },
        {
          "internalType": "string",
          "name": "_author",
          "type": "string"
        },
        {
          "internalType": "bool",
          "name": "_isfunding",
          "type": "bool"
        },
        {
          "internalType": "uint256",
          "name": "_fundAmount",
          "type": "uint256"
        }
      ],
      "name": "publish",
      "outputs": [],
      "stateMutability": "nonpayable",
      "type": "function"
    },
    {
      "inputs": [
        {
          "internalType": "uint256",
          "name": "_paperid",
          "type": "uint256"
        }
      ],
      "name": "fundapaper",
      "outputs": [],
      "stateMutability": "payable",
      "type": "function",
      "payable": true
    },
    {
      "inputs": [
        {
          "internalType": "uint256",
          "name": "paperId",
          "type": "uint256"
        }
      ],
      "name": "getPaper",
      "outputs": [
        {
          "components": [
            {
              "internalType": "uint256",
              "name": "tokenId",
              "type": "uint256"
            },
            {
              "internalType": "address",
              "name": "owner",
              "type": "address"
            },
            {
              "internalType": "string",
              "name": "author",
              "type": "string"
            },
            {
              "internalType": "string",
              "name": "tokenUri",
              "type": "string"
            },
            {
              "internalType": "bool",
              "name": "allowFunding",
              "type": "bool"
            },
            {
              "internalType": "uint256",
              "name": "fundAmount",
              "type": "uint256"
            },
            {
              "internalType": "uint256",
              "name": "totalAmountFunded",
              "type": "uint256"
            }
          ],
          "internalType": "struct PaperHouse.ResearchPaper",
          "name": "",
          "type": "tuple"
        },
        {
          "internalType": "string",
          "name": "",
          "type": "string"
        }
      ],
      "stateMutability": "view",
      "type": "function",
      "constant": true
    },
    {
      "inputs": [
        {
          "internalType": "uint256",
          "name": "_paperid",
          "type": "uint256"
        },
        {
          "internalType": "bool",
          "name": "_allowFunding",
          "type": "bool"
        },
        {
          "internalType": "uint256",
          "name": "_amount",
          "type": "uint256"
        }
      ],
      "name": "updatepaper",
      "outputs": [],
      "stateMutability": "nonpayable",
      "type": "function"
    }
  ],
  "bytecode": "0x60806040523480156200001157600080fd5b506040518060400160405280600a81526020017f5061706572486f757365000000000000000000000000000000000000000000008152506040518060400160405280600281526020017f5048000000000000000000000000000000000000000000000000000000000000815250816000908051906020019062000096929190620000b8565b508060019080519060200190620000af929190620000b8565b505050620001cd565b828054620000c69062000168565b90600052602060002090601f016020900481019282620000ea576000855562000136565b82601f106200010557805160ff191683800117855562000136565b8280016001018555821562000136579182015b828111156200013557825182559160200191906001019062000118565b5b50905062000145919062000149565b5090565b5b80821115620001645760008160009055506001016200014a565b5090565b600060028204905060018216806200018157607f821691505b602082108114156200019857620001976200019e565b5b50919050565b7f4e487b7100000000000000000000000000000000000000000000000000000000600052602260045260246000fd5b6139b380620001dd6000396000f3fe6080604052600436106101145760003560e01c806370a08231116100a0578063b88d4fde11610064578063b88d4fde146103da578063c87b56dd14610403578063e985e9c514610440578063f520c1d31461047d578063f8626af81461049957610114565b806370a08231146102f757806392c9a0f61461033457806395d89b411461035d578063a22cb46514610388578063b2ed06f7146103b157610114565b8063095ea7b3116100e7578063095ea7b3146101fc57806323b872dd1461022557806342842e0e1461024e5780635e775a27146102775780636352211e146102ba57610114565b806301ffc9a71461011957806306fdde031461015657806307993f0414610181578063081812fc146101bf575b600080fd5b34801561012557600080fd5b50610140600480360381019061013b9190612613565b6104d9565b60405161014d9190613140565b60405180910390f35b34801561016257600080fd5b5061016b6105bb565b604051610178919061315b565b60405180910390f35b34801561018d57600080fd5b506101a860048036038101906101a391906126f8565b61064d565b6040516101b69291906133dd565b60405180910390f35b3480156101cb57600080fd5b506101e660048036038101906101e191906126f8565b610842565b6040516101f39190613041565b60405180910390f35b34801561020857600080fd5b50610223600480360381019061021e91906125d7565b6108c7565b005b34801561023157600080fd5b5061024c600480360381019061024791906124d1565b6109df565b005b34801561025a57600080fd5b50610275600480360381019061027091906124d1565b610a3f565b005b34801561028357600080fd5b5061029e600480360381019061029991906126f8565b610a5f565b6040516102b1979695949392919061342f565b60405180910390f35b3480156102c657600080fd5b506102e160048036038101906102dc91906126f8565b610bde565b6040516102ee9190613041565b60405180910390f35b34801561030357600080fd5b5061031e6004803603810190610319919061246c565b610c90565b60405161032b9190613414565b60405180910390f35b34801561034057600080fd5b5061035b60048036038101906103569190612665565b610d48565b005b34801561036957600080fd5b50610372610efc565b60405161037f919061315b565b60405180910390f35b34801561039457600080fd5b506103af60048036038101906103aa919061259b565b610f8e565b005b3480156103bd57600080fd5b506103d860048036038101906103d39190612721565b61110f565b005b3480156103e657600080fd5b5061040160048036038101906103fc9190612520565b61121e565b005b34801561040f57600080fd5b5061042a600480360381019061042591906126f8565b611280565b604051610437919061315b565b60405180910390f35b34801561044c57600080fd5b5061046760048036038101906104629190612495565b6113d2565b6040516104749190613140565b60405180910390f35b610497600480360381019061049291906126f8565b611466565b005b3480156104a557600080fd5b506104c060048036038101906104bb91906126f8565b61161e565b6040516104d094939291906130a8565b60405180910390f35b60007f80ac58cd000000000000000000000000000000000000000000000000000000007bffffffffffffffffffffffffffffffffffffffffffffffffffffffff1916827bffffffffffffffffffffffffffffffffffffffffffffffffffffffff191614806105a457507f5b5e139f000000000000000000000000000000000000000000000000000000007bffffffffffffffffffffffffffffffffffffffffffffffffffffffff1916827bffffffffffffffffffffffffffffffffffffffffffffffffffffffff1916145b806105b457506105b38261168e565b5b9050919050565b6060600080546105ca906137a8565b80601f01602080910402602001604051908101604052809291908181526020018280546105f6906137a8565b80156106435780601f1061061857610100808354040283529160200191610643565b820191906000526020600020905b81548152906001019060200180831161062657829003601f168201915b5050505050905090565b61065561223b565b60608061066184611280565b90506009600085815260200190815260200160002081816040518060e0016040529081600082015481526020016001820160009054906101000a900473ffffffffffffffffffffffffffffffffffffffff1673ffffffffffffffffffffffffffffffffffffffff1673ffffffffffffffffffffffffffffffffffffffff1681526020016002820180546106f3906137a8565b80601f016020809104026020016040519081016040528092919081815260200182805461071f906137a8565b801561076c5780601f106107415761010080835404028352916020019161076c565b820191906000526020600020905b81548152906001019060200180831161074f57829003601f168201915b50505050508152602001600382018054610785906137a8565b80601f01602080910402602001604051908101604052809291908181526020018280546107b1906137a8565b80156107fe5780601f106107d3576101008083540402835291602001916107fe565b820191906000526020600020905b8154815290600101906020018083116107e157829003601f168201915b505050505081526020016004820160009054906101000a900460ff161515151581526020016005820154815260200160068201548152505091509250925050915091565b600061084d826116f8565b61088c576040517f08c379a0000000000000000000000000000000000000000000000000000000008152600401610883906132fd565b60405180910390fd5b6004600083815260200190815260200160002060009054906101000a900473ffffffffffffffffffffffffffffffffffffffff169050919050565b60006108d282610bde565b90508073ffffffffffffffffffffffffffffffffffffffff168373ffffffffffffffffffffffffffffffffffffffff161415610943576040517f08c379a000000000000000000000000000000000000000000000000000000000815260040161093a9061337d565b60405180910390fd5b8073ffffffffffffffffffffffffffffffffffffffff16610962611764565b73ffffffffffffffffffffffffffffffffffffffff16148061099157506109908161098b611764565b6113d2565b5b6109d0576040517f08c379a00000000000000000000000000000000000000000000000000000000081526004016109c79061323d565b60405180910390fd5b6109da838361176c565b505050565b6109f06109ea611764565b82611825565b610a2f576040517f08c379a0000000000000000000000000000000000000000000000000000000008152600401610a269061339d565b60405180910390fd5b610a3a838383611903565b505050565b610a5a8383836040518060200160405280600081525061121e565b505050565b60096020528060005260406000206000915090508060000154908060010160009054906101000a900473ffffffffffffffffffffffffffffffffffffffff1690806002018054610aae906137a8565b80601f0160208091040260200160405190810160405280929190818152602001828054610ada906137a8565b8015610b275780601f10610afc57610100808354040283529160200191610b27565b820191906000526020600020905b815481529060010190602001808311610b0a57829003601f168201915b505050505090806003018054610b3c906137a8565b80601f0160208091040260200160405190810160405280929190818152602001828054610b68906137a8565b8015610bb55780601f10610b8a57610100808354040283529160200191610bb5565b820191906000526020600020905b815481529060010190602001808311610b9857829003601f168201915b5050505050908060040160009054906101000a900460ff16908060050154908060060154905087565b6000806002600084815260200190815260200160002060009054906101000a900473ffffffffffffffffffffffffffffffffffffffff169050600073ffffffffffffffffffffffffffffffffffffffff168173ffffffffffffffffffffffffffffffffffffffff161415610c87576040517f08c379a0000000000000000000000000000000000000000000000000000000008152600401610c7e9061327d565b60405180910390fd5b80915050919050565b60008073ffffffffffffffffffffffffffffffffffffffff168273ffffffffffffffffffffffffffffffffffffffff161415610d01576040517f08c379a0000000000000000000000000000000000000000000000000000000008152600401610cf89061325d565b60405180910390fd5b600360008373ffffffffffffffffffffffffffffffffffffffff1673ffffffffffffffffffffffffffffffffffffffff168152602001908152602001600020549050919050565b610d526007611b5f565b610d5c6008611b5f565b6000610d686007611b75565b90506000610d766008611b75565b9050610d823383611b83565b610d8c8287611d51565b60006040518060e001604052808481526020013373ffffffffffffffffffffffffffffffffffffffff16815260200187815260200188815260200186151581526020018581526020016000815250905080600960008481526020019081526020016000206000820151816000015560208201518160010160006101000a81548173ffffffffffffffffffffffffffffffffffffffff021916908373ffffffffffffffffffffffffffffffffffffffff1602179055506040820151816002019080519060200190610e5d929190612290565b506060820151816003019080519060200190610e7a929190612290565b5060808201518160040160006101000a81548160ff02191690831515021790555060a0820151816005015560c082015181600601559050507f45c70252f5268cf8b290259a05cdbdd0c3ebc7089275d42d878da93339c86792838888338989604051610eeb969594939291906134e3565b60405180910390a150505050505050565b606060018054610f0b906137a8565b80601f0160208091040260200160405190810160405280929190818152602001828054610f37906137a8565b8015610f845780601f10610f5957610100808354040283529160200191610f84565b820191906000526020600020905b815481529060010190602001808311610f6757829003601f168201915b5050505050905090565b610f96611764565b73ffffffffffffffffffffffffffffffffffffffff168273ffffffffffffffffffffffffffffffffffffffff161415611004576040517f08c379a0000000000000000000000000000000000000000000000000000000008152600401610ffb906131dd565b60405180910390fd5b8060056000611011611764565b73ffffffffffffffffffffffffffffffffffffffff1673ffffffffffffffffffffffffffffffffffffffff16815260200190815260200160002060008473ffffffffffffffffffffffffffffffffffffffff1673ffffffffffffffffffffffffffffffffffffffff16815260200190815260200160002060006101000a81548160ff0219169083151502179055508173ffffffffffffffffffffffffffffffffffffffff166110be611764565b73ffffffffffffffffffffffffffffffffffffffff167f17307eab39ab6107e8899845ad3d59bd9653f200f220920489ca2b5937696c31836040516111039190613140565b60405180910390a35050565b60006009600085815260200190815260200160002090508060010160009054906101000a900473ffffffffffffffffffffffffffffffffffffffff1673ffffffffffffffffffffffffffffffffffffffff163373ffffffffffffffffffffffffffffffffffffffff16146111b8576040517f08c379a00000000000000000000000000000000000000000000000000000000081526004016111af9061321d565b60405180910390fd5b828160040160006101000a81548160ff0219169083151502179055508181600501819055507ff967a192d06cce9fca6d0f7a4c64eb194bc5b968f4081f2b6dcd9600d14f2f54848484604051611210939291906134ac565b60405180910390a150505050565b61122f611229611764565b83611825565b61126e576040517f08c379a00000000000000000000000000000000000000000000000000000000081526004016112659061339d565b60405180910390fd5b61127a84848484611dc5565b50505050565b606061128b826116f8565b6112ca576040517f08c379a00000000000000000000000000000000000000000000000000000000081526004016112c1906132dd565b60405180910390fd5b60006006600084815260200190815260200160002080546112ea906137a8565b80601f0160208091040260200160405190810160405280929190818152602001828054611316906137a8565b80156113635780601f1061133857610100808354040283529160200191611363565b820191906000526020600020905b81548152906001019060200180831161134657829003601f168201915b505050505090506000611374611e21565b905060008151141561138a5781925050506113cd565b6000825111156113bf5780826040516020016113a792919061301d565b604051602081830303815290604052925050506113cd565b6113c884611e38565b925050505b919050565b6000600560008473ffffffffffffffffffffffffffffffffffffffff1673ffffffffffffffffffffffffffffffffffffffff16815260200190815260200160002060008373ffffffffffffffffffffffffffffffffffffffff1673ffffffffffffffffffffffffffffffffffffffff16815260200190815260200160002060009054906101000a900460ff16905092915050565b6000600960008381526020019081526020016000209050600115158160040160009054906101000a900460ff161515146114d5576040517f08c379a00000000000000000000000000000000000000000000000000000000081526004016114cc9061335d565b60405180910390fd5b806006015481600501546114e991906136be565b34111561152b576040517f08c379a0000000000000000000000000000000000000000000000000000000008152600401611522906133bd565b60405180910390fd5b8060010160009054906101000a900473ffffffffffffffffffffffffffffffffffffffff1673ffffffffffffffffffffffffffffffffffffffff166108fc349081150290604051600060405180830381858888f19350505050158015611595573d6000803e3d6000fd5b5060008160060154905034816115ab9190613637565b90508082600601819055507f2ad49d850d9455fc5a24e33dd8127ee3ff936c5989ccc48806ca130add2a5afc338360010160009054906101000a900473ffffffffffffffffffffffffffffffffffffffff163486856040516116119594939291906130ed565b60405180910390a1505050565b600a6020528060005260406000206000915090508060000160009054906101000a900473ffffffffffffffffffffffffffffffffffffffff16908060010160009054906101000a900473ffffffffffffffffffffffffffffffffffffffff16908060020154908060030154905084565b60007f01ffc9a7000000000000000000000000000000000000000000000000000000007bffffffffffffffffffffffffffffffffffffffffffffffffffffffff1916827bffffffffffffffffffffffffffffffffffffffffffffffffffffffff1916149050919050565b60008073ffffffffffffffffffffffffffffffffffffffff166002600084815260200190815260200160002060009054906101000a900473ffffffffffffffffffffffffffffffffffffffff1673ffffffffffffffffffffffffffffffffffffffff1614159050919050565b600033905090565b816004600083815260200190815260200160002060006101000a81548173ffffffffffffffffffffffffffffffffffffffff021916908373ffffffffffffffffffffffffffffffffffffffff160217905550808273ffffffffffffffffffffffffffffffffffffffff166117df83610bde565b73ffffffffffffffffffffffffffffffffffffffff167f8c5be1e5ebec7d5bd14f71427d1e84f3dd0314c0f7b2291e5b200ac8c7c3b92560405160405180910390a45050565b6000611830826116f8565b61186f576040517f08c379a0000000000000000000000000000000000000000000000000000000008152600401611866906131fd565b60405180910390fd5b600061187a83610bde565b90508073ffffffffffffffffffffffffffffffffffffffff168473ffffffffffffffffffffffffffffffffffffffff1614806118e957508373ffffffffffffffffffffffffffffffffffffffff166118d184610842565b73ffffffffffffffffffffffffffffffffffffffff16145b806118fa57506118f981856113d2565b5b91505092915050565b8273ffffffffffffffffffffffffffffffffffffffff1661192382610bde565b73ffffffffffffffffffffffffffffffffffffffff1614611979576040517f08c379a00000000000000000000000000000000000000000000000000000000081526004016119709061331d565b60405180910390fd5b600073ffffffffffffffffffffffffffffffffffffffff168273ffffffffffffffffffffffffffffffffffffffff1614156119e9576040517f08c379a00000000000000000000000000000000000000000000000000000000081526004016119e0906131bd565b60405180910390fd5b6119f4838383611edf565b6119ff60008261176c565b6001600360008573ffffffffffffffffffffffffffffffffffffffff1673ffffffffffffffffffffffffffffffffffffffff1681526020019081526020016000206000828254611a4f91906136be565b925050819055506001600360008473ffffffffffffffffffffffffffffffffffffffff1673ffffffffffffffffffffffffffffffffffffffff1681526020019081526020016000206000828254611aa69190613637565b92505081905550816002600083815260200190815260200160002060006101000a81548173ffffffffffffffffffffffffffffffffffffffff021916908373ffffffffffffffffffffffffffffffffffffffff160217905550808273ffffffffffffffffffffffffffffffffffffffff168473ffffffffffffffffffffffffffffffffffffffff167fddf252ad1be2c89b69c2b068fc378daa952ba7f163c4a11628f55a4df523b3ef60405160405180910390a4505050565b6001816000016000828254019250508190555050565b600081600001549050919050565b600073ffffffffffffffffffffffffffffffffffffffff168273ffffffffffffffffffffffffffffffffffffffff161415611bf3576040517f08c379a0000000000000000000000000000000000000000000000000000000008152600401611bea906132bd565b60405180910390fd5b611bfc816116f8565b15611c3c576040517f08c379a0000000000000000000000000000000000000000000000000000000008152600401611c339061319d565b60405180910390fd5b611c4860008383611edf565b6001600360008473ffffffffffffffffffffffffffffffffffffffff1673ffffffffffffffffffffffffffffffffffffffff1681526020019081526020016000206000828254611c989190613637565b92505081905550816002600083815260200190815260200160002060006101000a81548173ffffffffffffffffffffffffffffffffffffffff021916908373ffffffffffffffffffffffffffffffffffffffff160217905550808273ffffffffffffffffffffffffffffffffffffffff16600073ffffffffffffffffffffffffffffffffffffffff167fddf252ad1be2c89b69c2b068fc378daa952ba7f163c4a11628f55a4df523b3ef60405160405180910390a45050565b611d5a826116f8565b611d99576040517f08c379a0000000000000000000000000000000000000000000000000000000008152600401611d909061329d565b60405180910390fd5b80600660008481526020019081526020016000209080519060200190611dc0929190612290565b505050565b611dd0848484611903565b611ddc84848484611ee4565b611e1b576040517f08c379a0000000000000000000000000000000000000000000000000000000008152600401611e129061317d565b60405180910390fd5b50505050565b606060405180602001604052806000815250905090565b6060611e43826116f8565b611e82576040517f08c379a0000000000000000000000000000000000000000000000000000000008152600401611e799061333d565b60405180910390fd5b6000611e8c611e21565b90506000815111611eac5760405180602001604052806000815250611ed7565b80611eb68461207b565b604051602001611ec792919061301d565b6040516020818303038152906040525b915050919050565b505050565b6000611f058473ffffffffffffffffffffffffffffffffffffffff16612228565b1561206e578373ffffffffffffffffffffffffffffffffffffffff1663150b7a02611f2e611764565b8786866040518563ffffffff1660e01b8152600401611f50949392919061305c565b602060405180830381600087803b158015611f6a57600080fd5b505af1925050508015611f9b57506040513d601f19601f82011682018060405250810190611f98919061263c565b60015b61201e573d8060008114611fcb576040519150601f19603f3d011682016040523d82523d6000602084013e611fd0565b606091505b50600081511415612016576040517f08c379a000000000000000000000000000000000000000000000000000000000815260040161200d9061317d565b60405180910390fd5b805181602001fd5b63150b7a0260e01b7bffffffffffffffffffffffffffffffffffffffffffffffffffffffff1916817bffffffffffffffffffffffffffffffffffffffffffffffffffffffff191614915050612073565b600190505b949350505050565b606060008214156120c3576040518060400160405280600181526020017f30000000000000000000000000000000000000000000000000000000000000008152509050612223565b600082905060005b600082146120f55780806120de906137da565b915050600a826120ee919061368d565b91506120cb565b60008167ffffffffffffffff811115612137577f4e487b7100000000000000000000000000000000000000000000000000000000600052604160045260246000fd5b6040519080825280601f01601f1916602001820160405280156121695781602001600182028036833780820191505090505b5090505b6000851461221c5760018261218291906136be565b9150600a856121919190613823565b603061219d9190613637565b60f81b8183815181106121d9577f4e487b7100000000000000000000000000000000000000000000000000000000600052603260045260246000fd5b60200101907effffffffffffffffffffffffffffffffffffffffffffffffffffffffffffff1916908160001a905350600a85612215919061368d565b945061216d565b8093505050505b919050565b600080823b905060008111915050919050565b6040518060e0016040528060008152602001600073ffffffffffffffffffffffffffffffffffffffff168152602001606081526020016060815260200160001515815260200160008152602001600081525090565b82805461229c906137a8565b90600052602060002090601f0160209004810192826122be5760008555612305565b82601f106122d757805160ff1916838001178555612305565b82800160010185558215612305579182015b828111156123045782518255916020019190600101906122e9565b5b5090506123129190612316565b5090565b5b8082111561232f576000816000905550600101612317565b5090565b600061234661234184613583565b613552565b90508281526020810184848401111561235e57600080fd5b612369848285613766565b509392505050565b600061238461237f846135b3565b613552565b90508281526020810184848401111561239c57600080fd5b6123a7848285613766565b509392505050565b6000813590506123be81613921565b92915050565b6000813590506123d381613938565b92915050565b6000813590506123e88161394f565b92915050565b6000815190506123fd8161394f565b92915050565b600082601f83011261241457600080fd5b8135612424848260208601612333565b91505092915050565b600082601f83011261243e57600080fd5b813561244e848260208601612371565b91505092915050565b60008135905061246681613966565b92915050565b60006020828403121561247e57600080fd5b600061248c848285016123af565b91505092915050565b600080604083850312156124a857600080fd5b60006124b6858286016123af565b92505060206124c7858286016123af565b9150509250929050565b6000806000606084860312156124e657600080fd5b60006124f4868287016123af565b9350506020612505868287016123af565b925050604061251686828701612457565b9150509250925092565b6000806000806080858703121561253657600080fd5b6000612544878288016123af565b9450506020612555878288016123af565b935050604061256687828801612457565b925050606085013567ffffffffffffffff81111561258357600080fd5b61258f87828801612403565b91505092959194509250565b600080604083850312156125ae57600080fd5b60006125bc858286016123af565b92505060206125cd858286016123c4565b9150509250929050565b600080604083850312156125ea57600080fd5b60006125f8858286016123af565b925050602061260985828601612457565b9150509250929050565b60006020828403121561262557600080fd5b6000612633848285016123d9565b91505092915050565b60006020828403121561264e57600080fd5b600061265c848285016123ee565b91505092915050565b6000806000806080858703121561267b57600080fd5b600085013567ffffffffffffffff81111561269557600080fd5b6126a18782880161242d565b945050602085013567ffffffffffffffff8111156126be57600080fd5b6126ca8782880161242d565b93505060406126db878288016123c4565b92505060606126ec87828801612457565b91505092959194509250565b60006020828403121561270a57600080fd5b600061271884828501612457565b91505092915050565b60008060006060848603121561273657600080fd5b600061274486828701612457565b9350506020612755868287016123c4565b925050604061276686828701612457565b9150509250925092565b612779816136f2565b82525050565b612788816136f2565b82525050565b61279781613704565b82525050565b6127a681613704565b82525050565b60006127b7826135e3565b6127c181856135f9565b93506127d1818560208601613775565b6127da81613910565b840191505092915050565b60006127f0826135ee565b6127fa818561360a565b935061280a818560208601613775565b61281381613910565b840191505092915050565b6000612829826135ee565b612833818561361b565b9350612843818560208601613775565b61284c81613910565b840191505092915050565b6000612862826135ee565b61286c818561362c565b935061287c818560208601613775565b80840191505092915050565b600061289560328361361b565b91507f4552433732313a207472616e7366657220746f206e6f6e20455243373231526560008301527f63656976657220696d706c656d656e74657200000000000000000000000000006020830152604082019050919050565b60006128fb601c8361361b565b91507f4552433732313a20746f6b656e20616c7265616479206d696e746564000000006000830152602082019050919050565b600061293b60248361361b565b91507f4552433732313a207472616e7366657220746f20746865207a65726f2061646460008301527f72657373000000000000000000000000000000000000000000000000000000006020830152604082019050919050565b60006129a160198361361b565b91507f4552433732313a20617070726f766520746f2063616c6c6572000000000000006000830152602082019050919050565b60006129e1602c8361361b565b91507f4552433732313a206f70657261746f7220717565727920666f72206e6f6e657860008301527f697374656e7420746f6b656e00000000000000000000000000000000000000006020830152604082019050919050565b6000612a47602d8361361b565b91507f796f7520617265206e6f7420746865206f776e6572206f66207468697320706160008301527f70657220746f20757064617465000000000000000000000000000000000000006020830152604082019050919050565b6000612aad60388361361b565b91507f4552433732313a20617070726f76652063616c6c6572206973206e6f74206f7760008301527f6e6572206e6f7220617070726f76656420666f7220616c6c00000000000000006020830152604082019050919050565b6000612b13602a8361361b565b91507f4552433732313a2062616c616e636520717565727920666f7220746865207a6560008301527f726f2061646472657373000000000000000000000000000000000000000000006020830152604082019050919050565b6000612b7960298361361b565b91507f4552433732313a206f776e657220717565727920666f72206e6f6e657869737460008301527f656e7420746f6b656e00000000000000000000000000000000000000000000006020830152604082019050919050565b6000612bdf602e8361361b565b91507f45524337323155524953746f726167653a2055524920736574206f66206e6f6e60008301527f6578697374656e7420746f6b656e0000000000000000000000000000000000006020830152604082019050919050565b6000612c4560208361361b565b91507f4552433732313a206d696e7420746f20746865207a65726f20616464726573736000830152602082019050919050565b6000612c8560318361361b565b91507f45524337323155524953746f726167653a2055524920717565727920666f722060008301527f6e6f6e6578697374656e7420746f6b656e0000000000000000000000000000006020830152604082019050919050565b6000612ceb602c8361361b565b91507f4552433732313a20617070726f76656420717565727920666f72206e6f6e657860008301527f697374656e7420746f6b656e00000000000000000000000000000000000000006020830152604082019050919050565b6000612d5160298361361b565b91507f4552433732313a207472616e73666572206f6620746f6b656e2074686174206960008301527f73206e6f74206f776e00000000000000000000000000000000000000000000006020830152604082019050919050565b6000612db7602f8361361b565b91507f4552433732314d657461646174613a2055524920717565727920666f72206e6f60008301527f6e6578697374656e7420746f6b656e00000000000000000000000000000000006020830152604082019050919050565b6000612e1d60138361361b565b91507f46756e64696e67206e6f7420616c6c6f776564000000000000000000000000006000830152602082019050919050565b6000612e5d60218361361b565b91507f4552433732313a20617070726f76616c20746f2063757272656e74206f776e6560008301527f72000000000000000000000000000000000000000000000000000000000000006020830152604082019050919050565b6000612ec360318361361b565b91507f4552433732313a207472616e736665722063616c6c6572206973206e6f74206f60008301527f776e6572206e6f7220617070726f7665640000000000000000000000000000006020830152604082019050919050565b6000612f2960178361361b565b91507f6e6f206d6f72652046756e64696e6720616c6c6f7765640000000000000000006000830152602082019050919050565b600060e083016000830151612f746000860182612fff565b506020830151612f876020860182612770565b5060408301518482036040860152612f9f82826127e5565b91505060608301518482036060860152612fb982826127e5565b9150506080830151612fce608086018261278e565b5060a0830151612fe160a0860182612fff565b5060c0830151612ff460c0860182612fff565b508091505092915050565b6130088161375c565b82525050565b6130178161375c565b82525050565b60006130298285612857565b91506130358284612857565b91508190509392505050565b6000602082019050613056600083018461277f565b92915050565b6000608082019050613071600083018761277f565b61307e602083018661277f565b61308b604083018561300e565b818103606083015261309d81846127ac565b905095945050505050565b60006080820190506130bd600083018761277f565b6130ca602083018661277f565b6130d7604083018561300e565b6130e4606083018461300e565b95945050505050565b600060a082019050613102600083018861277f565b61310f602083018761277f565b61311c604083018661300e565b613129606083018561300e565b613136608083018461300e565b9695505050505050565b6000602082019050613155600083018461279d565b92915050565b60006020820190508181036000830152613175818461281e565b905092915050565b6000602082019050818103600083015261319681612888565b9050919050565b600060208201905081810360008301526131b6816128ee565b9050919050565b600060208201905081810360008301526131d68161292e565b9050919050565b600060208201905081810360008301526131f681612994565b9050919050565b60006020820190508181036000830152613216816129d4565b9050919050565b6000602082019050818103600083015261323681612a3a565b9050919050565b6000602082019050818103600083015261325681612aa0565b9050919050565b6000602082019050818103600083015261327681612b06565b9050919050565b6000602082019050818103600083015261329681612b6c565b9050919050565b600060208201905081810360008301526132b681612bd2565b9050919050565b600060208201905081810360008301526132d681612c38565b9050919050565b600060208201905081810360008301526132f681612c78565b9050919050565b6000602082019050818103600083015261331681612cde565b9050919050565b6000602082019050818103600083015261333681612d44565b9050919050565b6000602082019050818103600083015261335681612daa565b9050919050565b6000602082019050818103600083015261337681612e10565b9050919050565b6000602082019050818103600083015261339681612e50565b9050919050565b600060208201905081810360008301526133b681612eb6565b9050919050565b600060208201905081810360008301526133d681612f1c565b9050919050565b600060408201905081810360008301526133f78185612f5c565b9050818103602083015261340b818461281e565b90509392505050565b6000602082019050613429600083018461300e565b92915050565b600060e082019050613444600083018a61300e565b613451602083018961277f565b8181036040830152613463818861281e565b90508181036060830152613477818761281e565b9050613486608083018661279d565b61349360a083018561300e565b6134a060c083018461300e565b98975050505050505050565b60006060820190506134c1600083018661300e565b6134ce602083018561279d565b6134db604083018461300e565b949350505050565b600060c0820190506134f8600083018961300e565b818103602083015261350a818861281e565b9050818103604083015261351e818761281e565b905061352d606083018661277f565b61353a608083018561279d565b61354760a083018461300e565b979650505050505050565b6000604051905081810181811067ffffffffffffffff82111715613579576135786138e1565b5b8060405250919050565b600067ffffffffffffffff82111561359e5761359d6138e1565b5b601f19601f8301169050602081019050919050565b600067ffffffffffffffff8211156135ce576135cd6138e1565b5b601f19601f8301169050602081019050919050565b600081519050919050565b600081519050919050565b600082825260208201905092915050565b600082825260208201905092915050565b600082825260208201905092915050565b600081905092915050565b60006136428261375c565b915061364d8361375c565b9250827fffffffffffffffffffffffffffffffffffffffffffffffffffffffffffffffff0382111561368257613681613854565b5b828201905092915050565b60006136988261375c565b91506136a38361375c565b9250826136b3576136b2613883565b5b828204905092915050565b60006136c98261375c565b91506136d48361375c565b9250828210156136e7576136e6613854565b5b828203905092915050565b60006136fd8261373c565b9050919050565b60008115159050919050565b60007fffffffff0000000000000000000000000000000000000000000000000000000082169050919050565b600073ffffffffffffffffffffffffffffffffffffffff82169050919050565b6000819050919050565b82818337600083830152505050565b60005b83811015613793578082015181840152602081019050613778565b838111156137a2576000848401525b50505050565b600060028204905060018216806137c057607f821691505b602082108114156137d4576137d36138b2565b5b50919050565b60006137e58261375c565b91507fffffffffffffffffffffffffffffffffffffffffffffffffffffffffffffffff82141561381857613817613854565b5b600182019050919050565b600061382e8261375c565b91506138398361375c565b92508261384957613848613883565b5b828206905092915050565b7f4e487b7100000000000000000000000000000000000000000000000000000000600052601160045260246000fd5b7f4e487b7100000000000000000000000000000000000000000000000000000000600052601260045260246000fd5b7f4e487b7100000000000000000000000000000000000000000000000000000000600052602260045260246000fd5b7f4e487b7100000000000000000000000000000000000000000000000000000000600052604160045260246000fd5b6000601f19601f8301169050919050565b61392a816136f2565b811461393557600080fd5b50565b61394181613704565b811461394c57600080fd5b50565b61395881613710565b811461396357600080fd5b50565b61396f8161375c565b811461397a57600080fd5b5056fea26469706673582212205b2b7993f547b7b0104d571fd87ee6ecc65cc2f46704ed8e82c1500d03f39d7e64736f6c63430008000033",
  "immutableReferences": {},
  "source": "// SPDX-License-Identifier: MIT\npragma solidity ^0.8.0;\n\nimport \"@openzeppelin/contracts/token/ERC721/ERC721.sol\";\nimport \"@openzeppelin/contracts/token/ERC721/extensions/ERC721URIStorage.sol\";\nimport \"@openzeppelin/contracts/utils/Counters.sol\";\n\ncontract PaperHouse is ERC721URIStorage {\n    using Counters for Counters.Counter;\n    Counters.Counter private _tokenIds;\n    Counters.Counter private _paperIds;\n\n    constructor() ERC721(\"PaperHouse\", \"PH\") {}\n\n    event Published(uint256 tokenId, string tokenUri, string author, address owner, bool allowFunding, uint256 fundAmount);\n    event Funding(address from, address to, uint256 amount, uint256 paperid, uint256 totalAmountFunded);\n    event UpdatePaper(uint256 paperid, bool allowFunding, uint256 amount);\n\n    struct ResearchPaper {\n        uint256 tokenId;\n        address owner;\n        string author;\n        string tokenUri;\n        bool allowFunding;\n        uint256 fundAmount;\n        uint256 totalAmountFunded;\n    }\n\n    struct Donations {\n        address from;\n        address to;\n        uint256 amount;\n        uint256 paperId;\n    }\n\n    mapping(uint256 => ResearchPaper) public papers;\n    mapping(uint256 => Donations) public donations;\n\n    function publish(\n        string memory tokenURI,\n        string memory _author,\n        bool _isfunding,\n        uint256 _fundAmount\n    ) public {\n        _tokenIds.increment();\n        _paperIds.increment();\n\n        uint256 newtokenId = _tokenIds.current();\n        uint256 newpaperId = _paperIds.current();\n\n        _mint(msg.sender, newtokenId);\n        _setTokenURI(newtokenId, tokenURI);\n\n        ResearchPaper memory rpaper = ResearchPaper(\n            newtokenId,\n            msg.sender,\n            _author,\n            tokenURI,\n            _isfunding,\n            _fundAmount,\n            0\n        );\n\n        papers[newpaperId] = rpaper;\n\n        emit Published(newtokenId, tokenURI, _author, msg.sender, _isfunding, _fundAmount);\n    }\n\n    function fundapaper(uint256 _paperid) public payable {\n        ResearchPaper storage rpaper = papers[_paperid];\n\n        require(rpaper.allowFunding == true, \"Funding not allowed\");\n\n        require(\n            msg.value <= (rpaper.fundAmount - rpaper.totalAmountFunded),\n            \"no more Funding allowed\"\n        );\n\n        payable(address(rpaper.owner)).transfer(msg.value);\n\n        uint256 amount = rpaper.totalAmountFunded;\n\n        amount += msg.value;\n        rpaper.totalAmountFunded = amount;\n\n        emit Funding(msg.sender, rpaper.owner, msg.value, _paperid, amount);\n    }\n\n    function getPaper(uint256 paperId)\n        public\n        view\n        returns (ResearchPaper memory, string memory)\n    {\n        string memory tokenUri;\n\n        tokenUri = tokenURI(paperId);\n\n        return (papers[paperId], tokenUri);\n    }\n\n    function updatepaper(\n        uint256 _paperid,\n        bool _allowFunding,\n        uint256 _amount\n    ) public {\n        ResearchPaper storage rpaper = papers[_paperid];\n        require(msg.sender==rpaper.owner,\"you are not the owner of this paper to update\");\n        rpaper.allowFunding=_allowFunding;\n        rpaper.fundAmount=_amount;\n\n        emit UpdatePaper(_paperid, _allowFunding, _amount);\n    }\n}\n",
  "sourcePath": "/home/sairajkapdi/Documents/CODE STUFF/paperHouse/PaperHouse/contracts/paperhouse.sol",
  "compiler": {
    "name": "solc",
    "version": "0.8.0+commit.c7dfd78e.Emscripten.clang"
  },
  "schemaVersion": "3.4.1",
  "updatedAt": "2021-07-18T15:59:42.490Z",
  "networkType": "ethereum",
  "devdoc": {
    "kind": "dev",
    "methods": {
      "approve(address,uint256)": {
        "details": "See {IERC721-approve}."
      },
      "balanceOf(address)": {
        "details": "See {IERC721-balanceOf}."
      },
      "getApproved(uint256)": {
        "details": "See {IERC721-getApproved}."
      },
      "isApprovedForAll(address,address)": {
        "details": "See {IERC721-isApprovedForAll}."
      },
      "name()": {
        "details": "See {IERC721Metadata-name}."
      },
      "ownerOf(uint256)": {
        "details": "See {IERC721-ownerOf}."
      },
      "safeTransferFrom(address,address,uint256)": {
        "details": "See {IERC721-safeTransferFrom}."
      },
      "safeTransferFrom(address,address,uint256,bytes)": {
        "details": "See {IERC721-safeTransferFrom}."
      },
      "setApprovalForAll(address,bool)": {
        "details": "See {IERC721-setApprovalForAll}."
      },
      "supportsInterface(bytes4)": {
        "details": "See {IERC165-supportsInterface}."
      },
      "symbol()": {
        "details": "See {IERC721Metadata-symbol}."
      },
      "tokenURI(uint256)": {
        "details": "See {IERC721Metadata-tokenURI}."
      },
      "transferFrom(address,address,uint256)": {
        "details": "See {IERC721-transferFrom}."
      }
    },
    "version": 1
  },
  "userdoc": {
    "kind": "user",
    "methods": {},
    "version": 1
  }
}