{
  "contractName": "PaperHouse",
  "abi": [
    {
      "inputs": [],
      "stateMutability": "nonpayable",
      "type": "constructor"
    },
    {
      "anonymous": false,
      "inputs": [
        {
          "indexed": true,
          "internalType": "address",
          "name": "owner",
          "type": "address"
        },
        {
          "indexed": true,
          "internalType": "address",
          "name": "approved",
          "type": "address"
        },
        {
          "indexed": true,
          "internalType": "uint256",
          "name": "tokenId",
          "type": "uint256"
        }
      ],
      "name": "Approval",
      "type": "event"
    },
    {
      "anonymous": false,
      "inputs": [
        {
          "indexed": true,
          "internalType": "address",
          "name": "owner",
          "type": "address"
        },
        {
          "indexed": true,
          "internalType": "address",
          "name": "operator",
          "type": "address"
        },
        {
          "indexed": false,
          "internalType": "bool",
          "name": "approved",
          "type": "bool"
        }
      ],
      "name": "ApprovalForAll",
      "type": "event"
    },
    {
      "anonymous": false,
      "inputs": [
        {
          "indexed": true,
          "internalType": "address",
          "name": "from",
          "type": "address"
        },
        {
          "indexed": true,
          "internalType": "address",
          "name": "to",
          "type": "address"
        },
        {
          "indexed": true,
          "internalType": "uint256",
          "name": "tokenId",
          "type": "uint256"
        }
      ],
      "name": "Transfer",
      "type": "event"
    },
    {
      "inputs": [
        {
          "internalType": "address",
          "name": "to",
          "type": "address"
        },
        {
          "internalType": "uint256",
          "name": "tokenId",
          "type": "uint256"
        }
      ],
      "name": "approve",
      "outputs": [],
      "stateMutability": "nonpayable",
      "type": "function"
    },
    {
      "inputs": [
        {
          "internalType": "address",
          "name": "owner",
          "type": "address"
        }
      ],
      "name": "balanceOf",
      "outputs": [
        {
          "internalType": "uint256",
          "name": "",
          "type": "uint256"
        }
      ],
      "stateMutability": "view",
      "type": "function",
      "constant": true
    },
    {
      "inputs": [
        {
          "internalType": "uint256",
          "name": "tokenId",
          "type": "uint256"
        }
      ],
      "name": "getApproved",
      "outputs": [
        {
          "internalType": "address",
          "name": "",
          "type": "address"
        }
      ],
      "stateMutability": "view",
      "type": "function",
      "constant": true
    },
    {
      "inputs": [
        {
          "internalType": "address",
          "name": "owner",
          "type": "address"
        },
        {
          "internalType": "address",
          "name": "operator",
          "type": "address"
        }
      ],
      "name": "isApprovedForAll",
      "outputs": [
        {
          "internalType": "bool",
          "name": "",
          "type": "bool"
        }
      ],
      "stateMutability": "view",
      "type": "function",
      "constant": true
    },
    {
      "inputs": [],
      "name": "name",
      "outputs": [
        {
          "internalType": "string",
          "name": "",
          "type": "string"
        }
      ],
      "stateMutability": "view",
      "type": "function",
      "constant": true
    },
    {
      "inputs": [
        {
          "internalType": "uint256",
          "name": "tokenId",
          "type": "uint256"
        }
      ],
      "name": "ownerOf",
      "outputs": [
        {
          "internalType": "address",
          "name": "",
          "type": "address"
        }
      ],
      "stateMutability": "view",
      "type": "function",
      "constant": true
    },
    {
      "inputs": [
        {
          "internalType": "uint256",
          "name": "",
          "type": "uint256"
        }
      ],
      "name": "papers",
      "outputs": [
        {
          "internalType": "address",
          "name": "owner",
          "type": "address"
        },
        {
          "internalType": "string",
          "name": "author",
          "type": "string"
        },
        {
          "internalType": "uint256",
          "name": "tokenId",
          "type": "uint256"
        },
        {
          "internalType": "bool",
          "name": "allowFunding",
          "type": "bool"
        },
        {
          "internalType": "uint256",
          "name": "fundAmount",
          "type": "uint256"
        },
        {
          "internalType": "uint256",
          "name": "totalAmountFunded",
          "type": "uint256"
        }
      ],
      "stateMutability": "view",
      "type": "function",
      "constant": true
    },
    {
      "inputs": [
        {
          "internalType": "address",
          "name": "from",
          "type": "address"
        },
        {
          "internalType": "address",
          "name": "to",
          "type": "address"
        },
        {
          "internalType": "uint256",
          "name": "tokenId",
          "type": "uint256"
        }
      ],
      "name": "safeTransferFrom",
      "outputs": [],
      "stateMutability": "nonpayable",
      "type": "function"
    },
    {
      "inputs": [
        {
          "internalType": "address",
          "name": "from",
          "type": "address"
        },
        {
          "internalType": "address",
          "name": "to",
          "type": "address"
        },
        {
          "internalType": "uint256",
          "name": "tokenId",
          "type": "uint256"
        },
        {
          "internalType": "bytes",
          "name": "_data",
          "type": "bytes"
        }
      ],
      "name": "safeTransferFrom",
      "outputs": [],
      "stateMutability": "nonpayable",
      "type": "function"
    },
    {
      "inputs": [
        {
          "internalType": "address",
          "name": "operator",
          "type": "address"
        },
        {
          "internalType": "bool",
          "name": "approved",
          "type": "bool"
        }
      ],
      "name": "setApprovalForAll",
      "outputs": [],
      "stateMutability": "nonpayable",
      "type": "function"
    },
    {
      "inputs": [
        {
          "internalType": "bytes4",
          "name": "interfaceId",
          "type": "bytes4"
        }
      ],
      "name": "supportsInterface",
      "outputs": [
        {
          "internalType": "bool",
          "name": "",
          "type": "bool"
        }
      ],
      "stateMutability": "view",
      "type": "function",
      "constant": true
    },
    {
      "inputs": [],
      "name": "symbol",
      "outputs": [
        {
          "internalType": "string",
          "name": "",
          "type": "string"
        }
      ],
      "stateMutability": "view",
      "type": "function",
      "constant": true
    },
    {
      "inputs": [
        {
          "internalType": "uint256",
          "name": "tokenId",
          "type": "uint256"
        }
      ],
      "name": "tokenURI",
      "outputs": [
        {
          "internalType": "string",
          "name": "",
          "type": "string"
        }
      ],
      "stateMutability": "view",
      "type": "function",
      "constant": true
    },
    {
      "inputs": [
        {
          "internalType": "address",
          "name": "from",
          "type": "address"
        },
        {
          "internalType": "address",
          "name": "to",
          "type": "address"
        },
        {
          "internalType": "uint256",
          "name": "tokenId",
          "type": "uint256"
        }
      ],
      "name": "transferFrom",
      "outputs": [],
      "stateMutability": "nonpayable",
      "type": "function"
    },
    {
      "inputs": [
        {
          "internalType": "string",
          "name": "tokenURI",
          "type": "string"
        },
        {
          "internalType": "string",
          "name": "_author",
          "type": "string"
        },
        {
          "internalType": "bool",
          "name": "_isfunding",
          "type": "bool"
        },
        {
          "internalType": "uint256",
          "name": "_fundAmount",
          "type": "uint256"
        }
      ],
      "name": "publish",
      "outputs": [],
      "stateMutability": "nonpayable",
      "type": "function"
    },
    {
      "inputs": [
        {
          "internalType": "uint256",
          "name": "_paperid",
          "type": "uint256"
        }
      ],
      "name": "fundapaper",
      "outputs": [],
      "stateMutability": "payable",
      "type": "function",
      "payable": true
    },
    {
      "inputs": [
        {
          "internalType": "uint256",
          "name": "paperId",
          "type": "uint256"
        }
      ],
      "name": "getPapers",
      "outputs": [
        {
          "components": [
            {
              "internalType": "address",
              "name": "owner",
              "type": "address"
            },
            {
              "internalType": "string",
              "name": "author",
              "type": "string"
            },
            {
              "internalType": "uint256",
              "name": "tokenId",
              "type": "uint256"
            },
            {
              "internalType": "bool",
              "name": "allowFunding",
              "type": "bool"
            },
            {
              "internalType": "uint256",
              "name": "fundAmount",
              "type": "uint256"
            },
            {
              "internalType": "uint256",
              "name": "totalAmountFunded",
              "type": "uint256"
            }
          ],
          "internalType": "struct PaperHouse.ResearchPaper",
          "name": "",
          "type": "tuple"
        },
        {
          "internalType": "string",
          "name": "",
          "type": "string"
        }
      ],
      "stateMutability": "view",
      "type": "function",
      "constant": true
    }
  ],
  "bytecode": "0x60806040523480156200001157600080fd5b506040518060400160405280600a81526020017f5061706572486f757365000000000000000000000000000000000000000000008152506040518060400160405280600281526020017f5048000000000000000000000000000000000000000000000000000000000000815250816000908051906020019062000096929190620000b8565b508060019080519060200190620000af929190620000b8565b505050620001cd565b828054620000c69062000168565b90600052602060002090601f016020900481019282620000ea576000855562000136565b82601f106200010557805160ff191683800117855562000136565b8280016001018555821562000136579182015b828111156200013557825182559160200191906001019062000118565b5b50905062000145919062000149565b5090565b5b80821115620001645760008160009055506001016200014a565b5090565b600060028204905060018216806200018157607f821691505b602082108114156200019857620001976200019e565b5b50919050565b7f4e487b7100000000000000000000000000000000000000000000000000000000600052602260045260246000fd5b61338480620001dd6000396000f3fe6080604052600436106100fe5760003560e01c80636352211e11610095578063a22cb46511610064578063a22cb46514610371578063b88d4fde1461039a578063c87b56dd146103c3578063e985e9c514610400578063f520c1d31461043d576100fe565b80636352211e146102a357806370a08231146102e057806392c9a0f61461031d57806395d89b4114610346576100fe565b806323b872dd116100d157806323b872dd146101d157806342842e0e146101fa57806357791bba146102235780635e775a2714610261576100fe565b806301ffc9a71461010357806306fdde0314610140578063081812fc1461016b578063095ea7b3146101a8575b600080fd5b34801561010f57600080fd5b5061012a60048036038101906101259190612226565b610459565b6040516101379190612c54565b60405180910390f35b34801561014c57600080fd5b5061015561053b565b6040516101629190612c6f565b60405180910390f35b34801561017757600080fd5b50610192600480360381019061018d919061230b565b6105cd565b60405161019f9190612b85565b60405180910390f35b3480156101b457600080fd5b506101cf60048036038101906101ca91906121ea565b610652565b005b3480156101dd57600080fd5b506101f860048036038101906101f391906120e4565b61076a565b005b34801561020657600080fd5b50610221600480360381019061021c91906120e4565b6107ca565b005b34801561022f57600080fd5b5061024a6004803603810190610245919061230b565b6107ea565b604051610258929190612ed1565b60405180910390f35b34801561026d57600080fd5b506102886004803603810190610283919061230b565b61094d565b60405161029a96959493929190612bec565b60405180910390f35b3480156102af57600080fd5b506102ca60048036038101906102c5919061230b565b610a3e565b6040516102d79190612b85565b60405180910390f35b3480156102ec57600080fd5b506103076004803603810190610302919061207f565b610af0565b6040516103149190612f08565b60405180910390f35b34801561032957600080fd5b50610344600480360381019061033f9190612278565b610ba8565b005b34801561035257600080fd5b5061035b610cf8565b6040516103689190612c6f565b60405180910390f35b34801561037d57600080fd5b50610398600480360381019061039391906121ae565b610d8a565b005b3480156103a657600080fd5b506103c160048036038101906103bc9190612133565b610f0b565b005b3480156103cf57600080fd5b506103ea60048036038101906103e5919061230b565b610f6d565b6040516103f79190612c6f565b60405180910390f35b34801561040c57600080fd5b50610427600480360381019061042291906120a8565b6110bf565b6040516104349190612c54565b60405180910390f35b6104576004803603810190610452919061230b565b611153565b005b60007f80ac58cd000000000000000000000000000000000000000000000000000000007bffffffffffffffffffffffffffffffffffffffffffffffffffffffff1916827bffffffffffffffffffffffffffffffffffffffffffffffffffffffff1916148061052457507f5b5e139f000000000000000000000000000000000000000000000000000000007bffffffffffffffffffffffffffffffffffffffffffffffffffffffff1916827bffffffffffffffffffffffffffffffffffffffffffffffffffffffff1916145b806105345750610533826112a8565b5b9050919050565b60606000805461054a90613179565b80601f016020809104026020016040519081016040528092919081815260200182805461057690613179565b80156105c35780601f10610598576101008083540402835291602001916105c3565b820191906000526020600020905b8154815290600101906020018083116105a657829003601f168201915b5050505050905090565b60006105d882611312565b610617576040517f08c379a000000000000000000000000000000000000000000000000000000000815260040161060e90612df1565b60405180910390fd5b6004600083815260200190815260200160002060009054906101000a900473ffffffffffffffffffffffffffffffffffffffff169050919050565b600061065d82610a3e565b90508073ffffffffffffffffffffffffffffffffffffffff168373ffffffffffffffffffffffffffffffffffffffff1614156106ce576040517f08c379a00000000000000000000000000000000000000000000000000000000081526004016106c590612e71565b60405180910390fd5b8073ffffffffffffffffffffffffffffffffffffffff166106ed61137e565b73ffffffffffffffffffffffffffffffffffffffff16148061071c575061071b8161071661137e565b6110bf565b5b61075b576040517f08c379a000000000000000000000000000000000000000000000000000000000815260040161075290612d31565b60405180910390fd5b6107658383611386565b505050565b61077b61077561137e565b8261143f565b6107ba576040517f08c379a00000000000000000000000000000000000000000000000000000000081526004016107b190612e91565b60405180910390fd5b6107c583838361151d565b505050565b6107e583838360405180602001604052806000815250610f0b565b505050565b6107f2611e55565b6060806107fe84610f6d565b90506009600085815260200190815260200160002081816040518060c00160405290816000820160009054906101000a900473ffffffffffffffffffffffffffffffffffffffff1673ffffffffffffffffffffffffffffffffffffffff1673ffffffffffffffffffffffffffffffffffffffff16815260200160018201805461088690613179565b80601f01602080910402602001604051908101604052809291908181526020018280546108b290613179565b80156108ff5780601f106108d4576101008083540402835291602001916108ff565b820191906000526020600020905b8154815290600101906020018083116108e257829003601f168201915b50505050508152602001600282015481526020016003820160009054906101000a900460ff161515151581526020016004820154815260200160058201548152505091509250925050915091565b60096020528060005260406000206000915090508060000160009054906101000a900473ffffffffffffffffffffffffffffffffffffffff169080600101805461099690613179565b80601f01602080910402602001604051908101604052809291908181526020018280546109c290613179565b8015610a0f5780601f106109e457610100808354040283529160200191610a0f565b820191906000526020600020905b8154815290600101906020018083116109f257829003601f168201915b5050505050908060020154908060030160009054906101000a900460ff16908060040154908060050154905086565b6000806002600084815260200190815260200160002060009054906101000a900473ffffffffffffffffffffffffffffffffffffffff169050600073ffffffffffffffffffffffffffffffffffffffff168173ffffffffffffffffffffffffffffffffffffffff161415610ae7576040517f08c379a0000000000000000000000000000000000000000000000000000000008152600401610ade90612d71565b60405180910390fd5b80915050919050565b60008073ffffffffffffffffffffffffffffffffffffffff168273ffffffffffffffffffffffffffffffffffffffff161415610b61576040517f08c379a0000000000000000000000000000000000000000000000000000000008152600401610b5890612d51565b60405180910390fd5b600360008373ffffffffffffffffffffffffffffffffffffffff1673ffffffffffffffffffffffffffffffffffffffff168152602001908152602001600020549050919050565b610bb26007611779565b610bbc6008611779565b6000610bc8600761178f565b90506000610bd6600861178f565b9050610be2338361179d565b610bec828761196b565b60006040518060c001604052803373ffffffffffffffffffffffffffffffffffffffff168152602001878152602001848152602001861515815260200185815260200160008152509050806009600084815260200190815260200160002060008201518160000160006101000a81548173ffffffffffffffffffffffffffffffffffffffff021916908373ffffffffffffffffffffffffffffffffffffffff1602179055506020820151816001019080519060200190610cad929190611ea3565b506040820151816002015560608201518160030160006101000a81548160ff0219169083151502179055506080820151816004015560a0820151816005015590505050505050505050565b606060018054610d0790613179565b80601f0160208091040260200160405190810160405280929190818152602001828054610d3390613179565b8015610d805780601f10610d5557610100808354040283529160200191610d80565b820191906000526020600020905b815481529060010190602001808311610d6357829003601f168201915b5050505050905090565b610d9261137e565b73ffffffffffffffffffffffffffffffffffffffff168273ffffffffffffffffffffffffffffffffffffffff161415610e00576040517f08c379a0000000000000000000000000000000000000000000000000000000008152600401610df790612cf1565b60405180910390fd5b8060056000610e0d61137e565b73ffffffffffffffffffffffffffffffffffffffff1673ffffffffffffffffffffffffffffffffffffffff16815260200190815260200160002060008473ffffffffffffffffffffffffffffffffffffffff1673ffffffffffffffffffffffffffffffffffffffff16815260200190815260200160002060006101000a81548160ff0219169083151502179055508173ffffffffffffffffffffffffffffffffffffffff16610eba61137e565b73ffffffffffffffffffffffffffffffffffffffff167f17307eab39ab6107e8899845ad3d59bd9653f200f220920489ca2b5937696c3183604051610eff9190612c54565b60405180910390a35050565b610f1c610f1661137e565b8361143f565b610f5b576040517f08c379a0000000000000000000000000000000000000000000000000000000008152600401610f5290612e91565b60405180910390fd5b610f67848484846119df565b50505050565b6060610f7882611312565b610fb7576040517f08c379a0000000000000000000000000000000000000000000000000000000008152600401610fae90612dd1565b60405180910390fd5b6000600660008481526020019081526020016000208054610fd790613179565b80601f016020809104026020016040519081016040528092919081815260200182805461100390613179565b80156110505780601f1061102557610100808354040283529160200191611050565b820191906000526020600020905b81548152906001019060200180831161103357829003601f168201915b505050505090506000611061611a3b565b90506000815114156110775781925050506110ba565b6000825111156110ac578082604051602001611094929190612b61565b604051602081830303815290604052925050506110ba565b6110b584611a52565b925050505b919050565b6000600560008473ffffffffffffffffffffffffffffffffffffffff1673ffffffffffffffffffffffffffffffffffffffff16815260200190815260200160002060008373ffffffffffffffffffffffffffffffffffffffff1673ffffffffffffffffffffffffffffffffffffffff16815260200190815260200160002060009054906101000a900460ff16905092915050565b6000600960008381526020019081526020016000209050600115158160030160009054906101000a900460ff161515146111c2576040517f08c379a00000000000000000000000000000000000000000000000000000000081526004016111b990612e51565b60405180910390fd5b806005015481600401546111d6919061308f565b341115611218576040517f08c379a000000000000000000000000000000000000000000000000000000000815260040161120f90612eb1565b60405180910390fd5b8060000160009054906101000a900473ffffffffffffffffffffffffffffffffffffffff1673ffffffffffffffffffffffffffffffffffffffff166108fc349081150290604051600060405180830381858888f19350505050158015611282573d6000803e3d6000fd5b5060008160050154905034816112989190613008565b9050808260050181905550505050565b60007f01ffc9a7000000000000000000000000000000000000000000000000000000007bffffffffffffffffffffffffffffffffffffffffffffffffffffffff1916827bffffffffffffffffffffffffffffffffffffffffffffffffffffffff1916149050919050565b60008073ffffffffffffffffffffffffffffffffffffffff166002600084815260200190815260200160002060009054906101000a900473ffffffffffffffffffffffffffffffffffffffff1673ffffffffffffffffffffffffffffffffffffffff1614159050919050565b600033905090565b816004600083815260200190815260200160002060006101000a81548173ffffffffffffffffffffffffffffffffffffffff021916908373ffffffffffffffffffffffffffffffffffffffff160217905550808273ffffffffffffffffffffffffffffffffffffffff166113f983610a3e565b73ffffffffffffffffffffffffffffffffffffffff167f8c5be1e5ebec7d5bd14f71427d1e84f3dd0314c0f7b2291e5b200ac8c7c3b92560405160405180910390a45050565b600061144a82611312565b611489576040517f08c379a000000000000000000000000000000000000000000000000000000000815260040161148090612d11565b60405180910390fd5b600061149483610a3e565b90508073ffffffffffffffffffffffffffffffffffffffff168473ffffffffffffffffffffffffffffffffffffffff16148061150357508373ffffffffffffffffffffffffffffffffffffffff166114eb846105cd565b73ffffffffffffffffffffffffffffffffffffffff16145b80611514575061151381856110bf565b5b91505092915050565b8273ffffffffffffffffffffffffffffffffffffffff1661153d82610a3e565b73ffffffffffffffffffffffffffffffffffffffff1614611593576040517f08c379a000000000000000000000000000000000000000000000000000000000815260040161158a90612e11565b60405180910390fd5b600073ffffffffffffffffffffffffffffffffffffffff168273ffffffffffffffffffffffffffffffffffffffff161415611603576040517f08c379a00000000000000000000000000000000000000000000000000000000081526004016115fa90612cd1565b60405180910390fd5b61160e838383611af9565b611619600082611386565b6001600360008573ffffffffffffffffffffffffffffffffffffffff1673ffffffffffffffffffffffffffffffffffffffff1681526020019081526020016000206000828254611669919061308f565b925050819055506001600360008473ffffffffffffffffffffffffffffffffffffffff1673ffffffffffffffffffffffffffffffffffffffff16815260200190815260200160002060008282546116c09190613008565b92505081905550816002600083815260200190815260200160002060006101000a81548173ffffffffffffffffffffffffffffffffffffffff021916908373ffffffffffffffffffffffffffffffffffffffff160217905550808273ffffffffffffffffffffffffffffffffffffffff168473ffffffffffffffffffffffffffffffffffffffff167fddf252ad1be2c89b69c2b068fc378daa952ba7f163c4a11628f55a4df523b3ef60405160405180910390a4505050565b6001816000016000828254019250508190555050565b600081600001549050919050565b600073ffffffffffffffffffffffffffffffffffffffff168273ffffffffffffffffffffffffffffffffffffffff16141561180d576040517f08c379a000000000000000000000000000000000000000000000000000000000815260040161180490612db1565b60405180910390fd5b61181681611312565b15611856576040517f08c379a000000000000000000000000000000000000000000000000000000000815260040161184d90612cb1565b60405180910390fd5b61186260008383611af9565b6001600360008473ffffffffffffffffffffffffffffffffffffffff1673ffffffffffffffffffffffffffffffffffffffff16815260200190815260200160002060008282546118b29190613008565b92505081905550816002600083815260200190815260200160002060006101000a81548173ffffffffffffffffffffffffffffffffffffffff021916908373ffffffffffffffffffffffffffffffffffffffff160217905550808273ffffffffffffffffffffffffffffffffffffffff16600073ffffffffffffffffffffffffffffffffffffffff167fddf252ad1be2c89b69c2b068fc378daa952ba7f163c4a11628f55a4df523b3ef60405160405180910390a45050565b61197482611312565b6119b3576040517f08c379a00000000000000000000000000000000000000000000000000000000081526004016119aa90612d91565b60405180910390fd5b806006600084815260200190815260200160002090805190602001906119da929190611ea3565b505050565b6119ea84848461151d565b6119f684848484611afe565b611a35576040517f08c379a0000000000000000000000000000000000000000000000000000000008152600401611a2c90612c91565b60405180910390fd5b50505050565b606060405180602001604052806000815250905090565b6060611a5d82611312565b611a9c576040517f08c379a0000000000000000000000000000000000000000000000000000000008152600401611a9390612e31565b60405180910390fd5b6000611aa6611a3b565b90506000815111611ac65760405180602001604052806000815250611af1565b80611ad084611c95565b604051602001611ae1929190612b61565b6040516020818303038152906040525b915050919050565b505050565b6000611b1f8473ffffffffffffffffffffffffffffffffffffffff16611e42565b15611c88578373ffffffffffffffffffffffffffffffffffffffff1663150b7a02611b4861137e565b8786866040518563ffffffff1660e01b8152600401611b6a9493929190612ba0565b602060405180830381600087803b158015611b8457600080fd5b505af1925050508015611bb557506040513d601f19601f82011682018060405250810190611bb2919061224f565b60015b611c38573d8060008114611be5576040519150601f19603f3d011682016040523d82523d6000602084013e611bea565b606091505b50600081511415611c30576040517f08c379a0000000000000000000000000000000000000000000000000000000008152600401611c2790612c91565b60405180910390fd5b805181602001fd5b63150b7a0260e01b7bffffffffffffffffffffffffffffffffffffffffffffffffffffffff1916817bffffffffffffffffffffffffffffffffffffffffffffffffffffffff191614915050611c8d565b600190505b949350505050565b60606000821415611cdd576040518060400160405280600181526020017f30000000000000000000000000000000000000000000000000000000000000008152509050611e3d565b600082905060005b60008214611d0f578080611cf8906131ab565b915050600a82611d08919061305e565b9150611ce5565b60008167ffffffffffffffff811115611d51577f4e487b7100000000000000000000000000000000000000000000000000000000600052604160045260246000fd5b6040519080825280601f01601f191660200182016040528015611d835781602001600182028036833780820191505090505b5090505b60008514611e3657600182611d9c919061308f565b9150600a85611dab91906131f4565b6030611db79190613008565b60f81b818381518110611df3577f4e487b7100000000000000000000000000000000000000000000000000000000600052603260045260246000fd5b60200101907effffffffffffffffffffffffffffffffffffffffffffffffffffffffffffff1916908160001a905350600a85611e2f919061305e565b9450611d87565b8093505050505b919050565b600080823b905060008111915050919050565b6040518060c00160405280600073ffffffffffffffffffffffffffffffffffffffff168152602001606081526020016000815260200160001515815260200160008152602001600081525090565b828054611eaf90613179565b90600052602060002090601f016020900481019282611ed15760008555611f18565b82601f10611eea57805160ff1916838001178555611f18565b82800160010185558215611f18579182015b82811115611f17578251825591602001919060010190611efc565b5b509050611f259190611f29565b5090565b5b80821115611f42576000816000905550600101611f2a565b5090565b6000611f59611f5484612f54565b612f23565b905082815260208101848484011115611f7157600080fd5b611f7c848285613137565b509392505050565b6000611f97611f9284612f84565b612f23565b905082815260208101848484011115611faf57600080fd5b611fba848285613137565b509392505050565b600081359050611fd1816132f2565b92915050565b600081359050611fe681613309565b92915050565b600081359050611ffb81613320565b92915050565b60008151905061201081613320565b92915050565b600082601f83011261202757600080fd5b8135612037848260208601611f46565b91505092915050565b600082601f83011261205157600080fd5b8135612061848260208601611f84565b91505092915050565b60008135905061207981613337565b92915050565b60006020828403121561209157600080fd5b600061209f84828501611fc2565b91505092915050565b600080604083850312156120bb57600080fd5b60006120c985828601611fc2565b92505060206120da85828601611fc2565b9150509250929050565b6000806000606084860312156120f957600080fd5b600061210786828701611fc2565b935050602061211886828701611fc2565b92505060406121298682870161206a565b9150509250925092565b6000806000806080858703121561214957600080fd5b600061215787828801611fc2565b945050602061216887828801611fc2565b93505060406121798782880161206a565b925050606085013567ffffffffffffffff81111561219657600080fd5b6121a287828801612016565b91505092959194509250565b600080604083850312156121c157600080fd5b60006121cf85828601611fc2565b92505060206121e085828601611fd7565b9150509250929050565b600080604083850312156121fd57600080fd5b600061220b85828601611fc2565b925050602061221c8582860161206a565b9150509250929050565b60006020828403121561223857600080fd5b600061224684828501611fec565b91505092915050565b60006020828403121561226157600080fd5b600061226f84828501612001565b91505092915050565b6000806000806080858703121561228e57600080fd5b600085013567ffffffffffffffff8111156122a857600080fd5b6122b487828801612040565b945050602085013567ffffffffffffffff8111156122d157600080fd5b6122dd87828801612040565b93505060406122ee87828801611fd7565b92505060606122ff8782880161206a565b91505092959194509250565b60006020828403121561231d57600080fd5b600061232b8482850161206a565b91505092915050565b61233d816130c3565b82525050565b61234c816130c3565b82525050565b61235b816130d5565b82525050565b61236a816130d5565b82525050565b600061237b82612fb4565b6123858185612fca565b9350612395818560208601613146565b61239e816132e1565b840191505092915050565b60006123b482612fbf565b6123be8185612fdb565b93506123ce818560208601613146565b6123d7816132e1565b840191505092915050565b60006123ed82612fbf565b6123f78185612fec565b9350612407818560208601613146565b612410816132e1565b840191505092915050565b600061242682612fbf565b6124308185612ffd565b9350612440818560208601613146565b80840191505092915050565b6000612459603283612fec565b91507f4552433732313a207472616e7366657220746f206e6f6e20455243373231526560008301527f63656976657220696d706c656d656e74657200000000000000000000000000006020830152604082019050919050565b60006124bf601c83612fec565b91507f4552433732313a20746f6b656e20616c7265616479206d696e746564000000006000830152602082019050919050565b60006124ff602483612fec565b91507f4552433732313a207472616e7366657220746f20746865207a65726f2061646460008301527f72657373000000000000000000000000000000000000000000000000000000006020830152604082019050919050565b6000612565601983612fec565b91507f4552433732313a20617070726f766520746f2063616c6c6572000000000000006000830152602082019050919050565b60006125a5602c83612fec565b91507f4552433732313a206f70657261746f7220717565727920666f72206e6f6e657860008301527f697374656e7420746f6b656e00000000000000000000000000000000000000006020830152604082019050919050565b600061260b603883612fec565b91507f4552433732313a20617070726f76652063616c6c6572206973206e6f74206f7760008301527f6e6572206e6f7220617070726f76656420666f7220616c6c00000000000000006020830152604082019050919050565b6000612671602a83612fec565b91507f4552433732313a2062616c616e636520717565727920666f7220746865207a6560008301527f726f2061646472657373000000000000000000000000000000000000000000006020830152604082019050919050565b60006126d7602983612fec565b91507f4552433732313a206f776e657220717565727920666f72206e6f6e657869737460008301527f656e7420746f6b656e00000000000000000000000000000000000000000000006020830152604082019050919050565b600061273d602e83612fec565b91507f45524337323155524953746f726167653a2055524920736574206f66206e6f6e60008301527f6578697374656e7420746f6b656e0000000000000000000000000000000000006020830152604082019050919050565b60006127a3602083612fec565b91507f4552433732313a206d696e7420746f20746865207a65726f20616464726573736000830152602082019050919050565b60006127e3603183612fec565b91507f45524337323155524953746f726167653a2055524920717565727920666f722060008301527f6e6f6e6578697374656e7420746f6b656e0000000000000000000000000000006020830152604082019050919050565b6000612849602c83612fec565b91507f4552433732313a20617070726f76656420717565727920666f72206e6f6e657860008301527f697374656e7420746f6b656e00000000000000000000000000000000000000006020830152604082019050919050565b60006128af602983612fec565b91507f4552433732313a207472616e73666572206f6620746f6b656e2074686174206960008301527f73206e6f74206f776e00000000000000000000000000000000000000000000006020830152604082019050919050565b6000612915602f83612fec565b91507f4552433732314d657461646174613a2055524920717565727920666f72206e6f60008301527f6e6578697374656e7420746f6b656e00000000000000000000000000000000006020830152604082019050919050565b600061297b601383612fec565b91507f46756e64696e67206e6f7420616c6c6f776564000000000000000000000000006000830152602082019050919050565b60006129bb602183612fec565b91507f4552433732313a20617070726f76616c20746f2063757272656e74206f776e6560008301527f72000000000000000000000000000000000000000000000000000000000000006020830152604082019050919050565b6000612a21603183612fec565b91507f4552433732313a207472616e736665722063616c6c6572206973206e6f74206f60008301527f776e6572206e6f7220617070726f7665640000000000000000000000000000006020830152604082019050919050565b6000612a87601783612fec565b91507f6e6f206d6f72652046756e64696e6720616c6c6f7765640000000000000000006000830152602082019050919050565b600060c083016000830151612ad26000860182612334565b5060208301518482036020860152612aea82826123a9565b9150506040830151612aff6040860182612b43565b506060830151612b126060860182612352565b506080830151612b256080860182612b43565b5060a0830151612b3860a0860182612b43565b508091505092915050565b612b4c8161312d565b82525050565b612b5b8161312d565b82525050565b6000612b6d828561241b565b9150612b79828461241b565b91508190509392505050565b6000602082019050612b9a6000830184612343565b92915050565b6000608082019050612bb56000830187612343565b612bc26020830186612343565b612bcf6040830185612b52565b8181036060830152612be18184612370565b905095945050505050565b600060c082019050612c016000830189612343565b8181036020830152612c1381886123e2565b9050612c226040830187612b52565b612c2f6060830186612361565b612c3c6080830185612b52565b612c4960a0830184612b52565b979650505050505050565b6000602082019050612c696000830184612361565b92915050565b60006020820190508181036000830152612c8981846123e2565b905092915050565b60006020820190508181036000830152612caa8161244c565b9050919050565b60006020820190508181036000830152612cca816124b2565b9050919050565b60006020820190508181036000830152612cea816124f2565b9050919050565b60006020820190508181036000830152612d0a81612558565b9050919050565b60006020820190508181036000830152612d2a81612598565b9050919050565b60006020820190508181036000830152612d4a816125fe565b9050919050565b60006020820190508181036000830152612d6a81612664565b9050919050565b60006020820190508181036000830152612d8a816126ca565b9050919050565b60006020820190508181036000830152612daa81612730565b9050919050565b60006020820190508181036000830152612dca81612796565b9050919050565b60006020820190508181036000830152612dea816127d6565b9050919050565b60006020820190508181036000830152612e0a8161283c565b9050919050565b60006020820190508181036000830152612e2a816128a2565b9050919050565b60006020820190508181036000830152612e4a81612908565b9050919050565b60006020820190508181036000830152612e6a8161296e565b9050919050565b60006020820190508181036000830152612e8a816129ae565b9050919050565b60006020820190508181036000830152612eaa81612a14565b9050919050565b60006020820190508181036000830152612eca81612a7a565b9050919050565b60006040820190508181036000830152612eeb8185612aba565b90508181036020830152612eff81846123e2565b90509392505050565b6000602082019050612f1d6000830184612b52565b92915050565b6000604051905081810181811067ffffffffffffffff82111715612f4a57612f496132b2565b5b8060405250919050565b600067ffffffffffffffff821115612f6f57612f6e6132b2565b5b601f19601f8301169050602081019050919050565b600067ffffffffffffffff821115612f9f57612f9e6132b2565b5b601f19601f8301169050602081019050919050565b600081519050919050565b600081519050919050565b600082825260208201905092915050565b600082825260208201905092915050565b600082825260208201905092915050565b600081905092915050565b60006130138261312d565b915061301e8361312d565b9250827fffffffffffffffffffffffffffffffffffffffffffffffffffffffffffffffff0382111561305357613052613225565b5b828201905092915050565b60006130698261312d565b91506130748361312d565b92508261308457613083613254565b5b828204905092915050565b600061309a8261312d565b91506130a58361312d565b9250828210156130b8576130b7613225565b5b828203905092915050565b60006130ce8261310d565b9050919050565b60008115159050919050565b60007fffffffff0000000000000000000000000000000000000000000000000000000082169050919050565b600073ffffffffffffffffffffffffffffffffffffffff82169050919050565b6000819050919050565b82818337600083830152505050565b60005b83811015613164578082015181840152602081019050613149565b83811115613173576000848401525b50505050565b6000600282049050600182168061319157607f821691505b602082108114156131a5576131a4613283565b5b50919050565b60006131b68261312d565b91507fffffffffffffffffffffffffffffffffffffffffffffffffffffffffffffffff8214156131e9576131e8613225565b5b600182019050919050565b60006131ff8261312d565b915061320a8361312d565b92508261321a57613219613254565b5b828206905092915050565b7f4e487b7100000000000000000000000000000000000000000000000000000000600052601160045260246000fd5b7f4e487b7100000000000000000000000000000000000000000000000000000000600052601260045260246000fd5b7f4e487b7100000000000000000000000000000000000000000000000000000000600052602260045260246000fd5b7f4e487b7100000000000000000000000000000000000000000000000000000000600052604160045260246000fd5b6000601f19601f8301169050919050565b6132fb816130c3565b811461330657600080fd5b50565b613312816130d5565b811461331d57600080fd5b50565b613329816130e1565b811461333457600080fd5b50565b6133408161312d565b811461334b57600080fd5b5056fea264697066735822122073a7262767ea2559b233276eae44330e59e3ccce0c841fe4ae5c8155868d7dfd64736f6c63430008000033",
  "immutableReferences": {},
  "source": "// SPDX-License-Identifier: MIT\npragma solidity ^0.8.0;\n\nimport \"@openzeppelin/contracts/token/ERC721/ERC721.sol\";\nimport \"@openzeppelin/contracts/token/ERC721/extensions/ERC721URIStorage.sol\";\nimport \"@openzeppelin/contracts/utils/Counters.sol\";\n\ncontract PaperHouse is ERC721URIStorage {\n    using Counters for Counters.Counter;\n    Counters.Counter private _tokenIds;\n    Counters.Counter private _paperIds;\n\n    constructor() ERC721(\"PaperHouse\", \"PH\") {}\n\n    struct ResearchPaper {\n        address owner;\n        string author;\n        uint256 tokenId;\n        bool allowFunding;\n        uint256 fundAmount;\n        uint256 totalAmountFunded;\n    }\n\n    mapping(uint256 => ResearchPaper) public papers;\n\n    function publish(\n        string memory tokenURI,\n        string memory _author,\n        bool _isfunding,\n        uint256 _fundAmount\n    ) public {\n        _tokenIds.increment();\n        _paperIds.increment();\n\n        uint256 newtokenId = _tokenIds.current();\n        uint256 newpaperId = _paperIds.current();\n\n        _mint(msg.sender, newtokenId);\n        _setTokenURI(newtokenId, tokenURI);\n\n        ResearchPaper memory rpaper = ResearchPaper(\n            msg.sender,\n            _author,\n            newtokenId,\n            _isfunding,\n            _fundAmount,\n            0\n        );\n\n        papers[newpaperId] = rpaper;\n    }\n\n    function fundapaper(uint256 _paperid) public payable {\n        ResearchPaper storage rpaper = papers[_paperid];\n\n        require(rpaper.allowFunding == true, \"Funding not allowed\");\n\n        require(\n            msg.value <= (rpaper.fundAmount - rpaper.totalAmountFunded),\n            \"no more Funding allowed\"\n        );\n\n        payable(address(rpaper.owner)).transfer(msg.value);\n\n        uint256 amount = rpaper.totalAmountFunded;\n\n        amount += msg.value;\n        rpaper.totalAmountFunded = amount;\n    }\n\n    function getPapers(uint256 paperId)\n        public\n        view\n        returns (ResearchPaper memory, string memory)\n    {\n        string memory tokenUri;\n\n        tokenUri = tokenURI(paperId);\n\n        return (papers[paperId], tokenUri);\n    }\n}\n",
  "sourcePath": "/home/sairajkapdi/Documents/CODE STUFF/paperHouse/PaperHouse/contracts/paperhouse.sol",
  "compiler": {
    "name": "solc",
    "version": "0.8.0+commit.c7dfd78e.Emscripten.clang"
  },
  "schemaVersion": "3.4.1",
  "updatedAt": "2021-07-05T07:41:03.879Z",
  "networkType": "ethereum",
  "devdoc": {
    "kind": "dev",
    "methods": {
      "approve(address,uint256)": {
        "details": "See {IERC721-approve}."
      },
      "balanceOf(address)": {
        "details": "See {IERC721-balanceOf}."
      },
      "getApproved(uint256)": {
        "details": "See {IERC721-getApproved}."
      },
      "isApprovedForAll(address,address)": {
        "details": "See {IERC721-isApprovedForAll}."
      },
      "name()": {
        "details": "See {IERC721Metadata-name}."
      },
      "ownerOf(uint256)": {
        "details": "See {IERC721-ownerOf}."
      },
      "safeTransferFrom(address,address,uint256)": {
        "details": "See {IERC721-safeTransferFrom}."
      },
      "safeTransferFrom(address,address,uint256,bytes)": {
        "details": "See {IERC721-safeTransferFrom}."
      },
      "setApprovalForAll(address,bool)": {
        "details": "See {IERC721-setApprovalForAll}."
      },
      "supportsInterface(bytes4)": {
        "details": "See {IERC165-supportsInterface}."
      },
      "symbol()": {
        "details": "See {IERC721Metadata-symbol}."
      },
      "tokenURI(uint256)": {
        "details": "See {IERC721Metadata-tokenURI}."
      },
      "transferFrom(address,address,uint256)": {
        "details": "See {IERC721-transferFrom}."
      }
    },
    "version": 1
  },
  "userdoc": {
    "kind": "user",
    "methods": {},
    "version": 1
  }
}