{
  "contractName": "PaperHouse",
  "abi": [
    {
      "inputs": [],
      "stateMutability": "nonpayable",
      "type": "constructor"
    },
    {
      "anonymous": false,
      "inputs": [
        {
          "indexed": true,
          "internalType": "address",
          "name": "owner",
          "type": "address"
        },
        {
          "indexed": true,
          "internalType": "address",
          "name": "approved",
          "type": "address"
        },
        {
          "indexed": true,
          "internalType": "uint256",
          "name": "tokenId",
          "type": "uint256"
        }
      ],
      "name": "Approval",
      "type": "event"
    },
    {
      "anonymous": false,
      "inputs": [
        {
          "indexed": true,
          "internalType": "address",
          "name": "owner",
          "type": "address"
        },
        {
          "indexed": true,
          "internalType": "address",
          "name": "operator",
          "type": "address"
        },
        {
          "indexed": false,
          "internalType": "bool",
          "name": "approved",
          "type": "bool"
        }
      ],
      "name": "ApprovalForAll",
      "type": "event"
    },
    {
      "anonymous": false,
      "inputs": [
        {
          "indexed": true,
          "internalType": "address",
          "name": "from",
          "type": "address"
        },
        {
          "indexed": true,
          "internalType": "address",
          "name": "to",
          "type": "address"
        },
        {
          "indexed": true,
          "internalType": "uint256",
          "name": "tokenId",
          "type": "uint256"
        }
      ],
      "name": "Transfer",
      "type": "event"
    },
    {
      "inputs": [
        {
          "internalType": "address",
          "name": "to",
          "type": "address"
        },
        {
          "internalType": "uint256",
          "name": "tokenId",
          "type": "uint256"
        }
      ],
      "name": "approve",
      "outputs": [],
      "stateMutability": "nonpayable",
      "type": "function"
    },
    {
      "inputs": [
        {
          "internalType": "address",
          "name": "owner",
          "type": "address"
        }
      ],
      "name": "balanceOf",
      "outputs": [
        {
          "internalType": "uint256",
          "name": "",
          "type": "uint256"
        }
      ],
      "stateMutability": "view",
      "type": "function",
      "constant": true
    },
    {
      "inputs": [
        {
          "internalType": "uint256",
          "name": "tokenId",
          "type": "uint256"
        }
      ],
      "name": "getApproved",
      "outputs": [
        {
          "internalType": "address",
          "name": "",
          "type": "address"
        }
      ],
      "stateMutability": "view",
      "type": "function",
      "constant": true
    },
    {
      "inputs": [
        {
          "internalType": "address",
          "name": "owner",
          "type": "address"
        },
        {
          "internalType": "address",
          "name": "operator",
          "type": "address"
        }
      ],
      "name": "isApprovedForAll",
      "outputs": [
        {
          "internalType": "bool",
          "name": "",
          "type": "bool"
        }
      ],
      "stateMutability": "view",
      "type": "function",
      "constant": true
    },
    {
      "inputs": [],
      "name": "name",
      "outputs": [
        {
          "internalType": "string",
          "name": "",
          "type": "string"
        }
      ],
      "stateMutability": "view",
      "type": "function",
      "constant": true
    },
    {
      "inputs": [
        {
          "internalType": "uint256",
          "name": "tokenId",
          "type": "uint256"
        }
      ],
      "name": "ownerOf",
      "outputs": [
        {
          "internalType": "address",
          "name": "",
          "type": "address"
        }
      ],
      "stateMutability": "view",
      "type": "function",
      "constant": true
    },
    {
      "inputs": [
        {
          "internalType": "uint256",
          "name": "",
          "type": "uint256"
        }
      ],
      "name": "papers",
      "outputs": [
        {
          "internalType": "address",
          "name": "owner",
          "type": "address"
        },
        {
          "internalType": "string",
          "name": "author",
          "type": "string"
        },
        {
          "internalType": "uint256",
          "name": "tokenId",
          "type": "uint256"
        },
        {
          "internalType": "bool",
          "name": "isfunding",
          "type": "bool"
        }
      ],
      "stateMutability": "view",
      "type": "function",
      "constant": true
    },
    {
      "inputs": [
        {
          "internalType": "address",
          "name": "from",
          "type": "address"
        },
        {
          "internalType": "address",
          "name": "to",
          "type": "address"
        },
        {
          "internalType": "uint256",
          "name": "tokenId",
          "type": "uint256"
        }
      ],
      "name": "safeTransferFrom",
      "outputs": [],
      "stateMutability": "nonpayable",
      "type": "function"
    },
    {
      "inputs": [
        {
          "internalType": "address",
          "name": "from",
          "type": "address"
        },
        {
          "internalType": "address",
          "name": "to",
          "type": "address"
        },
        {
          "internalType": "uint256",
          "name": "tokenId",
          "type": "uint256"
        },
        {
          "internalType": "bytes",
          "name": "_data",
          "type": "bytes"
        }
      ],
      "name": "safeTransferFrom",
      "outputs": [],
      "stateMutability": "nonpayable",
      "type": "function"
    },
    {
      "inputs": [
        {
          "internalType": "address",
          "name": "operator",
          "type": "address"
        },
        {
          "internalType": "bool",
          "name": "approved",
          "type": "bool"
        }
      ],
      "name": "setApprovalForAll",
      "outputs": [],
      "stateMutability": "nonpayable",
      "type": "function"
    },
    {
      "inputs": [
        {
          "internalType": "bytes4",
          "name": "interfaceId",
          "type": "bytes4"
        }
      ],
      "name": "supportsInterface",
      "outputs": [
        {
          "internalType": "bool",
          "name": "",
          "type": "bool"
        }
      ],
      "stateMutability": "view",
      "type": "function",
      "constant": true
    },
    {
      "inputs": [],
      "name": "symbol",
      "outputs": [
        {
          "internalType": "string",
          "name": "",
          "type": "string"
        }
      ],
      "stateMutability": "view",
      "type": "function",
      "constant": true
    },
    {
      "inputs": [
        {
          "internalType": "uint256",
          "name": "tokenId",
          "type": "uint256"
        }
      ],
      "name": "tokenURI",
      "outputs": [
        {
          "internalType": "string",
          "name": "",
          "type": "string"
        }
      ],
      "stateMutability": "view",
      "type": "function",
      "constant": true
    },
    {
      "inputs": [
        {
          "internalType": "address",
          "name": "from",
          "type": "address"
        },
        {
          "internalType": "address",
          "name": "to",
          "type": "address"
        },
        {
          "internalType": "uint256",
          "name": "tokenId",
          "type": "uint256"
        }
      ],
      "name": "transferFrom",
      "outputs": [],
      "stateMutability": "nonpayable",
      "type": "function"
    },
    {
      "inputs": [
        {
          "internalType": "string",
          "name": "tokenURI",
          "type": "string"
        },
        {
          "internalType": "string",
          "name": "_author",
          "type": "string"
        },
        {
          "internalType": "bool",
          "name": "_isfunding",
          "type": "bool"
        }
      ],
      "name": "publish",
      "outputs": [],
      "stateMutability": "nonpayable",
      "type": "function"
    },
    {
      "inputs": [
        {
          "internalType": "uint256",
          "name": "paperId",
          "type": "uint256"
        }
      ],
      "name": "getPapers",
      "outputs": [
        {
          "components": [
            {
              "internalType": "address",
              "name": "owner",
              "type": "address"
            },
            {
              "internalType": "string",
              "name": "author",
              "type": "string"
            },
            {
              "internalType": "uint256",
              "name": "tokenId",
              "type": "uint256"
            },
            {
              "internalType": "bool",
              "name": "isfunding",
              "type": "bool"
            }
          ],
          "internalType": "struct PaperHouse.ResearchPaper",
          "name": "",
          "type": "tuple"
        },
        {
          "internalType": "string",
          "name": "",
          "type": "string"
        }
      ],
      "stateMutability": "view",
      "type": "function",
      "constant": true
    }
  ],
  "bytecode": "0x60806040523480156200001157600080fd5b506040518060400160405280600a81526020017f5061706572486f757365000000000000000000000000000000000000000000008152506040518060400160405280600281526020017f5048000000000000000000000000000000000000000000000000000000000000815250816000908051906020019062000096929190620000b8565b508060019080519060200190620000af929190620000b8565b505050620001cd565b828054620000c69062000168565b90600052602060002090601f016020900481019282620000ea576000855562000136565b82601f106200010557805160ff191683800117855562000136565b8280016001018555821562000136579182015b828111156200013557825182559160200191906001019062000118565b5b50905062000145919062000149565b5090565b5b80821115620001645760008160009055506001016200014a565b5090565b600060028204905060018216806200018157607f821691505b602082108114156200019857620001976200019e565b5b50919050565b7f4e487b7100000000000000000000000000000000000000000000000000000000600052602260045260246000fd5b612fdd80620001dd6000396000f3fe608060405234801561001057600080fd5b50600436106101005760003560e01c80635e775a2711610097578063a22cb46511610066578063a22cb465146102d5578063b88d4fde146102f1578063c87b56dd1461030d578063e985e9c51461033d57610100565b80635e775a27146102245780636352211e1461025757806370a082311461028757806395d89b41146102b757610100565b806323b872dd116100d357806323b872dd1461019f57806342842e0e146101bb57806357791bba146101d75780635e3106181461020857610100565b806301ffc9a71461010557806306fdde0314610135578063081812fc14610153578063095ea7b314610183575b600080fd5b61011f600480360381019061011a9190611f95565b61036d565b60405161012c91906128ed565b60405180910390f35b61013d61044f565b60405161014a9190612908565b60405180910390f35b61016d60048036038101906101689190612066565b6104e1565b60405161017a919061283a565b60405180910390f35b61019d60048036038101906101989190611f59565b610566565b005b6101b960048036038101906101b49190611e53565b61067e565b005b6101d560048036038101906101d09190611e53565b6106de565b005b6101f160048036038101906101ec9190612066565b6106fe565b6040516101ff929190612b2a565b60405180910390f35b610222600480360381019061021d9190611fe7565b61084d565b005b61023e60048036038101906102399190612066565b61097b565b60405161024e94939291906128a1565b60405180910390f35b610271600480360381019061026c9190612066565b610a60565b60405161027e919061283a565b60405180910390f35b6102a1600480360381019061029c9190611dee565b610b12565b6040516102ae9190612b61565b60405180910390f35b6102bf610bca565b6040516102cc9190612908565b60405180910390f35b6102ef60048036038101906102ea9190611f1d565b610c5c565b005b61030b60048036038101906103069190611ea2565b610ddd565b005b61032760048036038101906103229190612066565b610e3f565b6040516103349190612908565b60405180910390f35b61035760048036038101906103529190611e17565b610f91565b60405161036491906128ed565b60405180910390f35b60007f80ac58cd000000000000000000000000000000000000000000000000000000007bffffffffffffffffffffffffffffffffffffffffffffffffffffffff1916827bffffffffffffffffffffffffffffffffffffffffffffffffffffffff1916148061043857507f5b5e139f000000000000000000000000000000000000000000000000000000007bffffffffffffffffffffffffffffffffffffffffffffffffffffffff1916827bffffffffffffffffffffffffffffffffffffffffffffffffffffffff1916145b80610448575061044782611025565b5b9050919050565b60606000805461045e90612dd2565b80601f016020809104026020016040519081016040528092919081815260200182805461048a90612dd2565b80156104d75780601f106104ac576101008083540402835291602001916104d7565b820191906000526020600020905b8154815290600101906020018083116104ba57829003601f168201915b5050505050905090565b60006104ec8261108f565b61052b576040517f08c379a000000000000000000000000000000000000000000000000000000000815260040161052290612a8a565b60405180910390fd5b6004600083815260200190815260200160002060009054906101000a900473ffffffffffffffffffffffffffffffffffffffff169050919050565b600061057182610a60565b90508073ffffffffffffffffffffffffffffffffffffffff168373ffffffffffffffffffffffffffffffffffffffff1614156105e2576040517f08c379a00000000000000000000000000000000000000000000000000000000081526004016105d990612aea565b60405180910390fd5b8073ffffffffffffffffffffffffffffffffffffffff166106016110fb565b73ffffffffffffffffffffffffffffffffffffffff161480610630575061062f8161062a6110fb565b610f91565b5b61066f576040517f08c379a0000000000000000000000000000000000000000000000000000000008152600401610666906129ca565b60405180910390fd5b6106798383611103565b505050565b61068f6106896110fb565b826111bc565b6106ce576040517f08c379a00000000000000000000000000000000000000000000000000000000081526004016106c590612b0a565b60405180910390fd5b6106d983838361129a565b505050565b6106f983838360405180602001604052806000815250610ddd565b505050565b610706611bd2565b60608061071284610e3f565b90506009600085815260200190815260200160002081816040518060800160405290816000820160009054906101000a900473ffffffffffffffffffffffffffffffffffffffff1673ffffffffffffffffffffffffffffffffffffffff1673ffffffffffffffffffffffffffffffffffffffff16815260200160018201805461079a90612dd2565b80601f01602080910402602001604051908101604052809291908181526020018280546107c690612dd2565b80156108135780601f106107e857610100808354040283529160200191610813565b820191906000526020600020905b8154815290600101906020018083116107f657829003601f168201915b50505050508152602001600282015481526020016003820160009054906101000a900460ff16151515158152505091509250925050915091565b61085760076114f6565b61086160086114f6565b600061086d600761150c565b9050600061087b600861150c565b9050610887338361151a565b61089182866116e8565b600060405180608001604052803373ffffffffffffffffffffffffffffffffffffffff1681526020018681526020018481526020018515158152509050806009600084815260200190815260200160002060008201518160000160006101000a81548173ffffffffffffffffffffffffffffffffffffffff021916908373ffffffffffffffffffffffffffffffffffffffff1602179055506020820151816001019080519060200190610945929190611c12565b506040820151816002015560608201518160030160006101000a81548160ff021916908315150217905550905050505050505050565b60096020528060005260406000206000915090508060000160009054906101000a900473ffffffffffffffffffffffffffffffffffffffff16908060010180546109c490612dd2565b80601f01602080910402602001604051908101604052809291908181526020018280546109f090612dd2565b8015610a3d5780601f10610a1257610100808354040283529160200191610a3d565b820191906000526020600020905b815481529060010190602001808311610a2057829003601f168201915b5050505050908060020154908060030160009054906101000a900460ff16905084565b6000806002600084815260200190815260200160002060009054906101000a900473ffffffffffffffffffffffffffffffffffffffff169050600073ffffffffffffffffffffffffffffffffffffffff168173ffffffffffffffffffffffffffffffffffffffff161415610b09576040517f08c379a0000000000000000000000000000000000000000000000000000000008152600401610b0090612a0a565b60405180910390fd5b80915050919050565b60008073ffffffffffffffffffffffffffffffffffffffff168273ffffffffffffffffffffffffffffffffffffffff161415610b83576040517f08c379a0000000000000000000000000000000000000000000000000000000008152600401610b7a906129ea565b60405180910390fd5b600360008373ffffffffffffffffffffffffffffffffffffffff1673ffffffffffffffffffffffffffffffffffffffff168152602001908152602001600020549050919050565b606060018054610bd990612dd2565b80601f0160208091040260200160405190810160405280929190818152602001828054610c0590612dd2565b8015610c525780601f10610c2757610100808354040283529160200191610c52565b820191906000526020600020905b815481529060010190602001808311610c3557829003601f168201915b5050505050905090565b610c646110fb565b73ffffffffffffffffffffffffffffffffffffffff168273ffffffffffffffffffffffffffffffffffffffff161415610cd2576040517f08c379a0000000000000000000000000000000000000000000000000000000008152600401610cc99061298a565b60405180910390fd5b8060056000610cdf6110fb565b73ffffffffffffffffffffffffffffffffffffffff1673ffffffffffffffffffffffffffffffffffffffff16815260200190815260200160002060008473ffffffffffffffffffffffffffffffffffffffff1673ffffffffffffffffffffffffffffffffffffffff16815260200190815260200160002060006101000a81548160ff0219169083151502179055508173ffffffffffffffffffffffffffffffffffffffff16610d8c6110fb565b73ffffffffffffffffffffffffffffffffffffffff167f17307eab39ab6107e8899845ad3d59bd9653f200f220920489ca2b5937696c3183604051610dd191906128ed565b60405180910390a35050565b610dee610de86110fb565b836111bc565b610e2d576040517f08c379a0000000000000000000000000000000000000000000000000000000008152600401610e2490612b0a565b60405180910390fd5b610e398484848461175c565b50505050565b6060610e4a8261108f565b610e89576040517f08c379a0000000000000000000000000000000000000000000000000000000008152600401610e8090612a6a565b60405180910390fd5b6000600660008481526020019081526020016000208054610ea990612dd2565b80601f0160208091040260200160405190810160405280929190818152602001828054610ed590612dd2565b8015610f225780601f10610ef757610100808354040283529160200191610f22565b820191906000526020600020905b815481529060010190602001808311610f0557829003601f168201915b505050505090506000610f336117b8565b9050600081511415610f49578192505050610f8c565b600082511115610f7e578082604051602001610f66929190612816565b60405160208183030381529060405292505050610f8c565b610f87846117cf565b925050505b919050565b6000600560008473ffffffffffffffffffffffffffffffffffffffff1673ffffffffffffffffffffffffffffffffffffffff16815260200190815260200160002060008373ffffffffffffffffffffffffffffffffffffffff1673ffffffffffffffffffffffffffffffffffffffff16815260200190815260200160002060009054906101000a900460ff16905092915050565b60007f01ffc9a7000000000000000000000000000000000000000000000000000000007bffffffffffffffffffffffffffffffffffffffffffffffffffffffff1916827bffffffffffffffffffffffffffffffffffffffffffffffffffffffff1916149050919050565b60008073ffffffffffffffffffffffffffffffffffffffff166002600084815260200190815260200160002060009054906101000a900473ffffffffffffffffffffffffffffffffffffffff1673ffffffffffffffffffffffffffffffffffffffff1614159050919050565b600033905090565b816004600083815260200190815260200160002060006101000a81548173ffffffffffffffffffffffffffffffffffffffff021916908373ffffffffffffffffffffffffffffffffffffffff160217905550808273ffffffffffffffffffffffffffffffffffffffff1661117683610a60565b73ffffffffffffffffffffffffffffffffffffffff167f8c5be1e5ebec7d5bd14f71427d1e84f3dd0314c0f7b2291e5b200ac8c7c3b92560405160405180910390a45050565b60006111c78261108f565b611206576040517f08c379a00000000000000000000000000000000000000000000000000000000081526004016111fd906129aa565b60405180910390fd5b600061121183610a60565b90508073ffffffffffffffffffffffffffffffffffffffff168473ffffffffffffffffffffffffffffffffffffffff16148061128057508373ffffffffffffffffffffffffffffffffffffffff16611268846104e1565b73ffffffffffffffffffffffffffffffffffffffff16145b8061129157506112908185610f91565b5b91505092915050565b8273ffffffffffffffffffffffffffffffffffffffff166112ba82610a60565b73ffffffffffffffffffffffffffffffffffffffff1614611310576040517f08c379a000000000000000000000000000000000000000000000000000000000815260040161130790612aaa565b60405180910390fd5b600073ffffffffffffffffffffffffffffffffffffffff168273ffffffffffffffffffffffffffffffffffffffff161415611380576040517f08c379a00000000000000000000000000000000000000000000000000000000081526004016113779061296a565b60405180910390fd5b61138b838383611876565b611396600082611103565b6001600360008573ffffffffffffffffffffffffffffffffffffffff1673ffffffffffffffffffffffffffffffffffffffff16815260200190815260200160002060008282546113e69190612ce8565b925050819055506001600360008473ffffffffffffffffffffffffffffffffffffffff1673ffffffffffffffffffffffffffffffffffffffff168152602001908152602001600020600082825461143d9190612c61565b92505081905550816002600083815260200190815260200160002060006101000a81548173ffffffffffffffffffffffffffffffffffffffff021916908373ffffffffffffffffffffffffffffffffffffffff160217905550808273ffffffffffffffffffffffffffffffffffffffff168473ffffffffffffffffffffffffffffffffffffffff167fddf252ad1be2c89b69c2b068fc378daa952ba7f163c4a11628f55a4df523b3ef60405160405180910390a4505050565b6001816000016000828254019250508190555050565b600081600001549050919050565b600073ffffffffffffffffffffffffffffffffffffffff168273ffffffffffffffffffffffffffffffffffffffff16141561158a576040517f08c379a000000000000000000000000000000000000000000000000000000000815260040161158190612a4a565b60405180910390fd5b6115938161108f565b156115d3576040517f08c379a00000000000000000000000000000000000000000000000000000000081526004016115ca9061294a565b60405180910390fd5b6115df60008383611876565b6001600360008473ffffffffffffffffffffffffffffffffffffffff1673ffffffffffffffffffffffffffffffffffffffff168152602001908152602001600020600082825461162f9190612c61565b92505081905550816002600083815260200190815260200160002060006101000a81548173ffffffffffffffffffffffffffffffffffffffff021916908373ffffffffffffffffffffffffffffffffffffffff160217905550808273ffffffffffffffffffffffffffffffffffffffff16600073ffffffffffffffffffffffffffffffffffffffff167fddf252ad1be2c89b69c2b068fc378daa952ba7f163c4a11628f55a4df523b3ef60405160405180910390a45050565b6116f18261108f565b611730576040517f08c379a000000000000000000000000000000000000000000000000000000000815260040161172790612a2a565b60405180910390fd5b80600660008481526020019081526020016000209080519060200190611757929190611c12565b505050565b61176784848461129a565b6117738484848461187b565b6117b2576040517f08c379a00000000000000000000000000000000000000000000000000000000081526004016117a99061292a565b60405180910390fd5b50505050565b606060405180602001604052806000815250905090565b60606117da8261108f565b611819576040517f08c379a000000000000000000000000000000000000000000000000000000000815260040161181090612aca565b60405180910390fd5b60006118236117b8565b90506000815111611843576040518060200160405280600081525061186e565b8061184d84611a12565b60405160200161185e929190612816565b6040516020818303038152906040525b915050919050565b505050565b600061189c8473ffffffffffffffffffffffffffffffffffffffff16611bbf565b15611a05578373ffffffffffffffffffffffffffffffffffffffff1663150b7a026118c56110fb565b8786866040518563ffffffff1660e01b81526004016118e79493929190612855565b602060405180830381600087803b15801561190157600080fd5b505af192505050801561193257506040513d601f19601f8201168201806040525081019061192f9190611fbe565b60015b6119b5573d8060008114611962576040519150601f19603f3d011682016040523d82523d6000602084013e611967565b606091505b506000815114156119ad576040517f08c379a00000000000000000000000000000000000000000000000000000000081526004016119a49061292a565b60405180910390fd5b805181602001fd5b63150b7a0260e01b7bffffffffffffffffffffffffffffffffffffffffffffffffffffffff1916817bffffffffffffffffffffffffffffffffffffffffffffffffffffffff191614915050611a0a565b600190505b949350505050565b60606000821415611a5a576040518060400160405280600181526020017f30000000000000000000000000000000000000000000000000000000000000008152509050611bba565b600082905060005b60008214611a8c578080611a7590612e04565b915050600a82611a859190612cb7565b9150611a62565b60008167ffffffffffffffff811115611ace577f4e487b7100000000000000000000000000000000000000000000000000000000600052604160045260246000fd5b6040519080825280601f01601f191660200182016040528015611b005781602001600182028036833780820191505090505b5090505b60008514611bb357600182611b199190612ce8565b9150600a85611b289190612e4d565b6030611b349190612c61565b60f81b818381518110611b70577f4e487b7100000000000000000000000000000000000000000000000000000000600052603260045260246000fd5b60200101907effffffffffffffffffffffffffffffffffffffffffffffffffffffffffffff1916908160001a905350600a85611bac9190612cb7565b9450611b04565b8093505050505b919050565b600080823b905060008111915050919050565b6040518060800160405280600073ffffffffffffffffffffffffffffffffffffffff16815260200160608152602001600081526020016000151581525090565b828054611c1e90612dd2565b90600052602060002090601f016020900481019282611c405760008555611c87565b82601f10611c5957805160ff1916838001178555611c87565b82800160010185558215611c87579182015b82811115611c86578251825591602001919060010190611c6b565b5b509050611c949190611c98565b5090565b5b80821115611cb1576000816000905550600101611c99565b5090565b6000611cc8611cc384612bad565b612b7c565b905082815260208101848484011115611ce057600080fd5b611ceb848285612d90565b509392505050565b6000611d06611d0184612bdd565b612b7c565b905082815260208101848484011115611d1e57600080fd5b611d29848285612d90565b509392505050565b600081359050611d4081612f4b565b92915050565b600081359050611d5581612f62565b92915050565b600081359050611d6a81612f79565b92915050565b600081519050611d7f81612f79565b92915050565b600082601f830112611d9657600080fd5b8135611da6848260208601611cb5565b91505092915050565b600082601f830112611dc057600080fd5b8135611dd0848260208601611cf3565b91505092915050565b600081359050611de881612f90565b92915050565b600060208284031215611e0057600080fd5b6000611e0e84828501611d31565b91505092915050565b60008060408385031215611e2a57600080fd5b6000611e3885828601611d31565b9250506020611e4985828601611d31565b9150509250929050565b600080600060608486031215611e6857600080fd5b6000611e7686828701611d31565b9350506020611e8786828701611d31565b9250506040611e9886828701611dd9565b9150509250925092565b60008060008060808587031215611eb857600080fd5b6000611ec687828801611d31565b9450506020611ed787828801611d31565b9350506040611ee887828801611dd9565b925050606085013567ffffffffffffffff811115611f0557600080fd5b611f1187828801611d85565b91505092959194509250565b60008060408385031215611f3057600080fd5b6000611f3e85828601611d31565b9250506020611f4f85828601611d46565b9150509250929050565b60008060408385031215611f6c57600080fd5b6000611f7a85828601611d31565b9250506020611f8b85828601611dd9565b9150509250929050565b600060208284031215611fa757600080fd5b6000611fb584828501611d5b565b91505092915050565b600060208284031215611fd057600080fd5b6000611fde84828501611d70565b91505092915050565b600080600060608486031215611ffc57600080fd5b600084013567ffffffffffffffff81111561201657600080fd5b61202286828701611daf565b935050602084013567ffffffffffffffff81111561203f57600080fd5b61204b86828701611daf565b925050604061205c86828701611d46565b9150509250925092565b60006020828403121561207857600080fd5b600061208684828501611dd9565b91505092915050565b61209881612d1c565b82525050565b6120a781612d1c565b82525050565b6120b681612d2e565b82525050565b6120c581612d2e565b82525050565b60006120d682612c0d565b6120e08185612c23565b93506120f0818560208601612d9f565b6120f981612f3a565b840191505092915050565b600061210f82612c18565b6121198185612c34565b9350612129818560208601612d9f565b61213281612f3a565b840191505092915050565b600061214882612c18565b6121528185612c45565b9350612162818560208601612d9f565b61216b81612f3a565b840191505092915050565b600061218182612c18565b61218b8185612c56565b935061219b818560208601612d9f565b80840191505092915050565b60006121b4603283612c45565b91507f4552433732313a207472616e7366657220746f206e6f6e20455243373231526560008301527f63656976657220696d706c656d656e74657200000000000000000000000000006020830152604082019050919050565b600061221a601c83612c45565b91507f4552433732313a20746f6b656e20616c7265616479206d696e746564000000006000830152602082019050919050565b600061225a602483612c45565b91507f4552433732313a207472616e7366657220746f20746865207a65726f2061646460008301527f72657373000000000000000000000000000000000000000000000000000000006020830152604082019050919050565b60006122c0601983612c45565b91507f4552433732313a20617070726f766520746f2063616c6c6572000000000000006000830152602082019050919050565b6000612300602c83612c45565b91507f4552433732313a206f70657261746f7220717565727920666f72206e6f6e657860008301527f697374656e7420746f6b656e00000000000000000000000000000000000000006020830152604082019050919050565b6000612366603883612c45565b91507f4552433732313a20617070726f76652063616c6c6572206973206e6f74206f7760008301527f6e6572206e6f7220617070726f76656420666f7220616c6c00000000000000006020830152604082019050919050565b60006123cc602a83612c45565b91507f4552433732313a2062616c616e636520717565727920666f7220746865207a6560008301527f726f2061646472657373000000000000000000000000000000000000000000006020830152604082019050919050565b6000612432602983612c45565b91507f4552433732313a206f776e657220717565727920666f72206e6f6e657869737460008301527f656e7420746f6b656e00000000000000000000000000000000000000000000006020830152604082019050919050565b6000612498602e83612c45565b91507f45524337323155524953746f726167653a2055524920736574206f66206e6f6e60008301527f6578697374656e7420746f6b656e0000000000000000000000000000000000006020830152604082019050919050565b60006124fe602083612c45565b91507f4552433732313a206d696e7420746f20746865207a65726f20616464726573736000830152602082019050919050565b600061253e603183612c45565b91507f45524337323155524953746f726167653a2055524920717565727920666f722060008301527f6e6f6e6578697374656e7420746f6b656e0000000000000000000000000000006020830152604082019050919050565b60006125a4602c83612c45565b91507f4552433732313a20617070726f76656420717565727920666f72206e6f6e657860008301527f697374656e7420746f6b656e00000000000000000000000000000000000000006020830152604082019050919050565b600061260a602983612c45565b91507f4552433732313a207472616e73666572206f6620746f6b656e2074686174206960008301527f73206e6f74206f776e00000000000000000000000000000000000000000000006020830152604082019050919050565b6000612670602f83612c45565b91507f4552433732314d657461646174613a2055524920717565727920666f72206e6f60008301527f6e6578697374656e7420746f6b656e00000000000000000000000000000000006020830152604082019050919050565b60006126d6602183612c45565b91507f4552433732313a20617070726f76616c20746f2063757272656e74206f776e6560008301527f72000000000000000000000000000000000000000000000000000000000000006020830152604082019050919050565b600061273c603183612c45565b91507f4552433732313a207472616e736665722063616c6c6572206973206e6f74206f60008301527f776e6572206e6f7220617070726f7665640000000000000000000000000000006020830152604082019050919050565b60006080830160008301516127ad600086018261208f565b50602083015184820360208601526127c58282612104565b91505060408301516127da60408601826127f8565b5060608301516127ed60608601826120ad565b508091505092915050565b61280181612d86565b82525050565b61281081612d86565b82525050565b60006128228285612176565b915061282e8284612176565b91508190509392505050565b600060208201905061284f600083018461209e565b92915050565b600060808201905061286a600083018761209e565b612877602083018661209e565b6128846040830185612807565b818103606083015261289681846120cb565b905095945050505050565b60006080820190506128b6600083018761209e565b81810360208301526128c8818661213d565b90506128d76040830185612807565b6128e460608301846120bc565b95945050505050565b600060208201905061290260008301846120bc565b92915050565b60006020820190508181036000830152612922818461213d565b905092915050565b60006020820190508181036000830152612943816121a7565b9050919050565b600060208201905081810360008301526129638161220d565b9050919050565b600060208201905081810360008301526129838161224d565b9050919050565b600060208201905081810360008301526129a3816122b3565b9050919050565b600060208201905081810360008301526129c3816122f3565b9050919050565b600060208201905081810360008301526129e381612359565b9050919050565b60006020820190508181036000830152612a03816123bf565b9050919050565b60006020820190508181036000830152612a2381612425565b9050919050565b60006020820190508181036000830152612a438161248b565b9050919050565b60006020820190508181036000830152612a63816124f1565b9050919050565b60006020820190508181036000830152612a8381612531565b9050919050565b60006020820190508181036000830152612aa381612597565b9050919050565b60006020820190508181036000830152612ac3816125fd565b9050919050565b60006020820190508181036000830152612ae381612663565b9050919050565b60006020820190508181036000830152612b03816126c9565b9050919050565b60006020820190508181036000830152612b238161272f565b9050919050565b60006040820190508181036000830152612b448185612795565b90508181036020830152612b58818461213d565b90509392505050565b6000602082019050612b766000830184612807565b92915050565b6000604051905081810181811067ffffffffffffffff82111715612ba357612ba2612f0b565b5b8060405250919050565b600067ffffffffffffffff821115612bc857612bc7612f0b565b5b601f19601f8301169050602081019050919050565b600067ffffffffffffffff821115612bf857612bf7612f0b565b5b601f19601f8301169050602081019050919050565b600081519050919050565b600081519050919050565b600082825260208201905092915050565b600082825260208201905092915050565b600082825260208201905092915050565b600081905092915050565b6000612c6c82612d86565b9150612c7783612d86565b9250827fffffffffffffffffffffffffffffffffffffffffffffffffffffffffffffffff03821115612cac57612cab612e7e565b5b828201905092915050565b6000612cc282612d86565b9150612ccd83612d86565b925082612cdd57612cdc612ead565b5b828204905092915050565b6000612cf382612d86565b9150612cfe83612d86565b925082821015612d1157612d10612e7e565b5b828203905092915050565b6000612d2782612d66565b9050919050565b60008115159050919050565b60007fffffffff0000000000000000000000000000000000000000000000000000000082169050919050565b600073ffffffffffffffffffffffffffffffffffffffff82169050919050565b6000819050919050565b82818337600083830152505050565b60005b83811015612dbd578082015181840152602081019050612da2565b83811115612dcc576000848401525b50505050565b60006002820490506001821680612dea57607f821691505b60208210811415612dfe57612dfd612edc565b5b50919050565b6000612e0f82612d86565b91507fffffffffffffffffffffffffffffffffffffffffffffffffffffffffffffffff821415612e4257612e41612e7e565b5b600182019050919050565b6000612e5882612d86565b9150612e6383612d86565b925082612e7357612e72612ead565b5b828206905092915050565b7f4e487b7100000000000000000000000000000000000000000000000000000000600052601160045260246000fd5b7f4e487b7100000000000000000000000000000000000000000000000000000000600052601260045260246000fd5b7f4e487b7100000000000000000000000000000000000000000000000000000000600052602260045260246000fd5b7f4e487b7100000000000000000000000000000000000000000000000000000000600052604160045260246000fd5b6000601f19601f8301169050919050565b612f5481612d1c565b8114612f5f57600080fd5b50565b612f6b81612d2e565b8114612f7657600080fd5b50565b612f8281612d3a565b8114612f8d57600080fd5b50565b612f9981612d86565b8114612fa457600080fd5b5056fea26469706673582212200d88c754816cd42821d850952c890e4e6920298197501c2e9fc304691f42722364736f6c63430008000033",
  "immutableReferences": {},
  "source": "// SPDX-License-Identifier: MIT\npragma solidity ^0.8.0;\n\nimport \"@openzeppelin/contracts/token/ERC721/ERC721.sol\";\nimport \"@openzeppelin/contracts/token/ERC721/extensions/ERC721URIStorage.sol\";\nimport \"@openzeppelin/contracts/utils/Counters.sol\";\n\ncontract PaperHouse is ERC721URIStorage {\n    using Counters for Counters.Counter;\n    Counters.Counter private _tokenIds;\n    Counters.Counter private _paperIds;\n\n    constructor() ERC721(\"PaperHouse\", \"PH\") {}\n\n    struct ResearchPaper {\n        address owner;\n        string author;\n        uint256 tokenId;\n        bool isfunding;\n    }\n\n    mapping(uint256 => ResearchPaper) public papers;\n\n    function publish(\n        string memory tokenURI,\n        string memory _author,\n        bool _isfunding\n    ) public {\n        _tokenIds.increment();\n        _paperIds.increment();\n\n        uint256 newtokenId = _tokenIds.current();\n        uint256 newpaperId = _paperIds.current();\n\n        _mint(msg.sender, newtokenId);\n        _setTokenURI(newtokenId, tokenURI);\n\n        ResearchPaper memory rpaper = ResearchPaper(\n            msg.sender,\n            _author,\n            newtokenId,\n            _isfunding\n        );\n\n        papers[newpaperId] = rpaper;\n    }\n\n    function getPapers(uint256 paperId)\n        public\n        view\n        returns (ResearchPaper memory, string memory)\n    {\n        string memory tokenUri;\n\n        tokenUri = tokenURI(paperId);\n\n        return (papers[paperId], tokenUri);\n    }\n}\n",
  "sourcePath": "/home/sairajkapdi/Documents/CODE STUFF/paperHouse/PaperHouse/contracts/paperhouse.sol",
  "compiler": {
    "name": "solc",
    "version": "0.8.0+commit.c7dfd78e.Emscripten.clang"
  },
  "schemaVersion": "3.4.1",
  "updatedAt": "2021-07-05T07:11:22.999Z",
  "networkType": "ethereum",
  "devdoc": {
    "kind": "dev",
    "methods": {
      "approve(address,uint256)": {
        "details": "See {IERC721-approve}."
      },
      "balanceOf(address)": {
        "details": "See {IERC721-balanceOf}."
      },
      "getApproved(uint256)": {
        "details": "See {IERC721-getApproved}."
      },
      "isApprovedForAll(address,address)": {
        "details": "See {IERC721-isApprovedForAll}."
      },
      "name()": {
        "details": "See {IERC721Metadata-name}."
      },
      "ownerOf(uint256)": {
        "details": "See {IERC721-ownerOf}."
      },
      "safeTransferFrom(address,address,uint256)": {
        "details": "See {IERC721-safeTransferFrom}."
      },
      "safeTransferFrom(address,address,uint256,bytes)": {
        "details": "See {IERC721-safeTransferFrom}."
      },
      "setApprovalForAll(address,bool)": {
        "details": "See {IERC721-setApprovalForAll}."
      },
      "supportsInterface(bytes4)": {
        "details": "See {IERC165-supportsInterface}."
      },
      "symbol()": {
        "details": "See {IERC721Metadata-symbol}."
      },
      "tokenURI(uint256)": {
        "details": "See {IERC721Metadata-tokenURI}."
      },
      "transferFrom(address,address,uint256)": {
        "details": "See {IERC721-transferFrom}."
      }
    },
    "version": 1
  },
  "userdoc": {
    "kind": "user",
    "methods": {},
    "version": 1
  }
}